:020000040800F2
:10000000C09000205D0200087B5E0008B15100082E
:10001000F95D00085D150008818C000800000000F3
:100020000000000000000000000000009D0100082A
:10003000E91E000800000000F9010008D966000868
:1000400077020008770200087702000877020008AC
:100050007702000877020008FB1E000877020008FC
:100060007702000877020008011F000877020008E5
:10007000891B000877020008951B0008770200081A
:10008000770200087702000877020008B51500081B
:100090009D150008A915000877020008071F000831
:1000A000770200087702000877020008770200084C
:1000B00077020008A96700087702000877020008A5
:1000C0007702000877020008770200082965000817
:1000D00077020008FD6C000877020008296D00080F
:1000E000770200087702000877020008770200080C
:1000F00077020008770200087702000877020008FC
:1001000077020008770200087702000877020008EB
:1001100077020008770200087702000877020008DB
:1001200077020008A11B0008AD1B0008C11B0008D6
:100130007702000877020008770200080916000815
:10014000FD1500087702000877020008016000082A
:10015000CD1B0008D91B0008E51B0008196F00081B
:10016000770200087702000877020008770200088B
:1001700077020008770200087702000800000000FC
:100180007702000877020008DFF80CD000F03EFE8E
:100190000048004771C30008C09000202C4B19682C
:1001A0000868B0E8F04F80F30988BFF36F8F4FF015
:1001B000000080F3118870470000000008480068C4
:1001C000006880F308884FF0000080F3148862B65E
:1001D00061B6BFF34F8FBFF36F8F00DF00BF00BF6B
:1001E00008ED00E0DFF80C00016841F470010160E7
:1001F000704700BF88ED00E0EFF30980BFF36F8F19
:10020000134B1A681EF0100F08BF20ED108A20E96A
:10021000F04F106009B44FF0500080F31188BFF325
:100220004F8FBFF36F8F0DF059F94FF0000080F33F
:10023000118809BC19680868B0E8F04F1EF0100F6B
:1002400008BFB0EC108A80F30988BFF36F8F704746
:100250002C000020EFF3058070470000064880471F
:1002600006480047FEE7FEE7FEE7FEE7FEE7FEE79B
:10027000FEE7FEE7FEE7FEE7996700088901000850
:100280002DE9F05F0546002092469B4688460646CB
:10029000814640241BE0284641464746224600F05E
:1002A00056FC53465A46C01A914110D3114618467F
:1002B000224600F03DFC2D1A67EB01084F4622460E
:1002C0000120002100F034FC17EB00094E41201EF4
:1002D000A4F10104DFDC484631462A464346BDE826
:1002E000F09F40EA01039B0703D009E008C9121FF1
:1002F00008C0042AFAD203E011F8013B00F8013BE0
:10030000521EF9D27047D2B201E000F8012B491E0B
:10031000FBD270470022F6E710B513460A460446A2
:100320001946FFF7F0FF204610BD421C10F8011BD4
:100330000029FBD1801A7047034611F8012B00F801
:10034000012B002AF9D11846704700000FB400B500
:100350008DB010A909900B9000914FF0FF300A90DA
:1003600000200C9005480690054807906A4609A8A9
:100370000F9900F015FC0DB05DF814FBBD0B0008E3
:10038000DB0B00082DE9FF4F087881B09946FF2864
:1003900005D0491C2D2804D00024002308E00023A8
:1003A0000BE00124F9E703EB830300EB4303491C53
:1003B0000878FF28F7D104B15B4200200090147840
:1003C00001462D2C01D02B2C04D1521C2D2C12D0E7
:1003D0000024009400251678FF2E0ED00A24A0FBDE
:1003E00004C801FB0481002700FB0711521C16EB17
:1003F0000C006941EFE70124EBE7994450EA010260
:100400000ED00024AA4D2646DFF8A88200F0F2FCA8
:1004100082468B46B9F1000009DAC9F100071BE0FA
:1004200001980021C0E9001105B0BDE8F08F074632
:1004300012E0F80707D022462B463046414600F02E
:10044000E4F90646884622462B461046194600F037
:10045000DCF904460D467F10002FEAD1B9F1000FF8
:10046000324643465046594602DA00F040FA01E06F
:1004700000F0CBF9009A0AB181F00041019AC2E97B
:100480000001D1E72DE9FF4F1F468DB0D7E90146A6
:100490004FF0FF382E2045464FF000090B90B96908
:1004A0006D1C0E988847396A824688470028F6D125
:1004B000BAF1FF3F0AD024F4D064002E11DDBAF166
:1004C0002B0F08D0BAF12D0F0BD102E0404611B02E
:1004D000ABE744F48064B9696D1C0E988847824686
:1004E000761E6946600501D52D2000E02B208DF891
:1004F000000001F1010B0DF1200809E0B9696D1C44
:100500000E98884782460F9844F40074761E056062
:10051000002E02DDBAF1300FF0D00B998A453ED1A2
:1005200044F0800406E00F99681CA9F1010944F425
:1005300000740860B9696D1C761E0E988847824663
:100540003028F0D02BE00B998A4505D1200603D442
:1005500044F08004761E18E050460AF045FB08B3CC
:100560000DF11301761E44F400748B4508D2AAF1F4
:1005700030000BF8010B200607D5A9F1010003E0BC
:10058000200602D409F101008146A00502D50F9989
:10059000681C0860B9696D1C0E9888478246002E59
:1005A000D1DC53E0002E51DDBAF1650F02D0BAF173
:1005B000450F4BD1A00549D5B9696D1C24F4407491
:1005C000761E0E9888478246002E0CDD2B2804D01C
:1005D000BAF12D0F07D144F48074B9696D1C0E98DF
:1005E00088478246761EE00501D52D2100E02B21AB
:1005F00008F8011BCDF82C8021E00DF12901761EB1
:1006000044F4007488450CD2AAF1300010F0FF00C9
:1006100088F8000002D10B99884509D908F1010832
:1006200006E0E00501D5244801E042F20F70814662
:10063000B9696D1C0E98884782460F980560002E98
:1006400004DD50460AF0D0FA0028D6D1F9690E9898
:100650008847FF208BF8000088F8000000200690F3
:1006600007904B466A4608A906A8FFF78BFEA0052F
:1006700002D46FF001002AE714F0240F0AD0E0073B
:1006800014D1DDE906123868031D3B600068C0E93B
:1006900000120BE0DDE9060100F018FA0146E00760
:1006A00004D13868021D3A600068016028460EE7F0
:1006B000000024400000F03FF1D8FFFF2DE9FE4F7D
:1006C000804681EA0300C00F0C46009021F00041F3
:1006D00023F00045B8EB0200A94105D2404621466F
:1006E00090461C460B46024623F00040104347D07C
:1006F000270DC7F30A00C3F30A510290401A019074
:1007000040286BDAC3F3130040F4801B0098924634
:1007100020B10023D2EB030A63EB0B0B019859467F
:10072000C0F14002504600F003FA06460D4650461E
:100730005946019A00F01BFA10EB080061410024B1
:1007400087EA115284EAE7731A4340D0009A62B3F1
:10075000019A012A4FEA075215DC001B61EB0201E6
:100760004FF0004202EA0752CDE90042001C41F579
:10077000801132462B4600F087FA03B0BDE8F08FB7
:1007800040462146F9E7001B61EB0201001C41F5E0
:10079000801300185B412018A2F5001747EB0301F6
:1007A00040EAD570B6196D4111E06D084FEA360682
:1007B00045EAC0754FEA0752001B61EB0201001CBD
:1007C00041F5801149084FEA300000195141324685
:1007D0002B4603B0BDE8F04F00F047BA0098012265
:1007E00040000023D0EB020263EBE0730098214647
:1007F0004FEAE074B8EB000061EB0401E9E783F035
:1008000000435BE781F0004158E72DE9FE4F81EAA4
:10081000030404F0004421F0004100944FF0000B69
:1008200023F0004350EA01045ED052EA03045BD097
:10083000C3F30A54C1F30A552C44A4F2F3340194CF
:10084000A0FB0254C1F3130141F48011C3F313035D
:1008500043F4801301FB024400FB034E840A970A11
:1008600044EA815447EA8357A4FB076802958D0A3E
:1008700005FB07854FEA932C04FB0C542705029DCA
:100880004FEA065847EA1637B5EB08056EEB070C3A
:10089000870E920E47EA811742EA8312A7FB0201F4
:1008A000B6EB0B0164EB00042B0D43EA0C335E182E
:1008B00044EB1C50DA465146E7FB0201C5F3130432
:1008C0004FEA0B3343EA14534FEA0432019C43EAE4
:1008D0000603A4F10C040294009CCDE900B400F0DE
:1008E000D3F903B0BDE8F08F00200146F9E72DE908
:1008F000F04D81EA030404F0004B21F0004514465A
:100900004FF0000A23F0004150EA050220D054EADB
:1009100001021DD0C5F30A570246C5F31303C1F304
:100920001300C1F30A5640F4801543F48013A7EB7B
:100930000608101BD64608F2FD3873EB050002D3FB
:1009400008F1010801E092185B41B8F1000F03DAE9
:1009500000200146BDE8F08D00204FF480110646CE
:1009600084460EE0171B73EB050705D3121B63EBE0
:10097000050306434CEA010C49084FEA300092187F
:100980005B4150EA0107EDD152EA030012D082EA3E
:10099000040083EA0501084305D0101BAB4106D2D1
:1009A0000122002306E000224FF0004302E06FF036
:1009B000010253101AEB06004CEB085110EB0A0031
:1009C00041EB0B01BDE8F04D00F04FB90EB5C10F82
:1009D00080EAE0700844CA07002140F233438DE802
:1009E0000E000A460B4600F04FF903B000BD0EB5ED
:1009F00040F2334102910021CDE900110A460B4635
:100A000000F042F903B000BD70B5C1F30A5201F025
:100A100000450024C1F3130140F2FF3341F480117B
:100A20009A4201DA002070BD40F233439A42A2F2AA
:100A3000334203DC524200F08AF800E090402C433D
:100A4000F1D0404270BD00F0004230F000400AD0CA
:100A5000C10D01F56071C0F3160042EA0151C208F0
:100A600040071143704700200146704730B5041E0F
:100A700071F1000404DB4FF00044404264EB0101DB
:100A8000141E73F1000405DB1C464FF00043524274
:100A900063EB04038B4208BF824230BD30B5041EB5
:100AA00071F1000404DB4FF00044404264EB0101AB
:100AB000141E73F1000405DB1C464FF00043524244
:100AC00063EB0403994208BF904230BD01F000433C
:100AD00030B421F0004150EA010206D00A0DA2F51F
:100AE0006072C1F31301002A02DC30BC00207047A1
:100AF000440F44EAC104C100E01830BC00EBC2500E
:100B000000F07CB830B50B460146002020220124BD
:100B100009E021FA02F59D4205D303FA02F5491BCB
:100B200004FA02F52844151EA2F10102F1DC30BDE1
:100B3000202A04DB203A00FA02F10020704791409D
:100B4000C2F1200320FA03F3194390407047202A92
:100B500004DB203A21FA02F00021704721FA02F367
:100B6000D040C2F120029140084319467047202A24
:100B700006DBCB17203A41FA02F043EAE07306E0C5
:100B800041FA02F3D040C2F12002914008431946D5
:100B900070470000026811441378016018467047DE
:100BA000D16004495161044911620021116111466B
:100BB00000F044B9950B0008310E0008426842B1BC
:100BC000016811F8013B23B1521EC0E9001218461A
:100BD00070470121C160881E704742685AB1C368DE
:100BE000016843B983688B4205D0491E521CC0E995
:100BF0000012002070474FF0FF3070470029A8BF57
:100C00007047401C490008BF20F00100704710B435
:100C1000B0FA80FC00FA0CF050EA010404BF10BCEA
:100C2000704749B1CCF1200421FA04F411FA0CF117
:100C300018BF012121430843A3EB0C01CB1D4FEA50
:100C400000614FEA102042BF002010BC704700EB4B
:100C5000C35010440029A4BF10BC7047401C490079
:100C600008BF20F0010010BC704710B5141E73F1CE
:100C7000000408DA401C41F1000192185B411A435C
:100C800001D120F0010010BD2DE9F04D92469B46A8
:100C900011B1B1FA81F202E0B0FA80F2203290464E
:100CA000FFF746FF04460F4640EA0A0041EA0B01FF
:100CB00053465A46084313D0114653EA010019D04F
:100CC000C8F140025046FFF742FF05460E46504627
:100CD00059464246FFF72CFF084305D0012004E0A7
:100CE00020463946BDE8F08D0020054346EAE0760F
:100CF0002C4337430A986305E40AA0EB080000225E
:100D0000FD0A44EA47540A3002D500200146E9E7CB
:100D1000010510196941DDE9084500196941BDE87F
:100D2000F04DA2E770B521F0004303430CD0C1F3AE
:100D30000A550024D5EB040564EB0403D617AD1A5D
:100D4000B34102DB0020014670BD201841EB025187
:100D500070BD2DE9F04D00231A461B1A8A4103DBB2
:100D600000200146BDE8F08DC1F30A52C1F3130122
:100D700041F480154FF0000BD10702D100186D41EE
:100D8000521E0027044640F2FF11384601EB620A6A
:100D90003E468046024600204FF48011FFF7D7FE02
:100DA000C2197141BB1846EB0100B4EB030C75EBA3
:100DB000000C04D3E41A65EB000517460E4624190F
:100DC00008F101006D4180463428E3DDF91946EB56
:100DD0000600091BA84103D24FF0FF32134601E081
:100DE000002213461BEB070046EB0A51BDE8F04D0D
:100DF000FFF73BBF0EB540F2334202920022CDE92D
:100E000000221346FFF740FF03B000BD064C074D1C
:100E100006E0E06840F0010394E8070098471034CA
:100E2000AC42F6D3FFF7B4F9B4DF0008D4DF000812
:100E3000C0B24FF4F05100F097B900002DE9F34F24
:100E40008BB04FF0000801F10C000C464FF0010B85
:100E500046460DF1080A0190626901210198904708
:100E6000051E2DD0252D2CD0216A8847C0B162697E
:100E7000012101989047216A88470028F7D1411E37
:100E800062690198904700E0761CA1690B98884739
:100E9000216A88470028F7D1E1690B988847DBE78A
:100EA000A1690B9888470746A84201D1761CD3E771
:100EB000E1690B9888477F1C02D1B8F1000F6FD011
:100EC00046E1002762693D463946019890472A2845
:100ED00004D162690121019890470125DFF88492CD
:100EE0006269012101989047A0F130010A290AD2D4
:100EF0004F45E5DC07EB870100EB4107303FDFD4CE
:100F000045F01005ECE7E90601D46FF000476C28C6
:100F10000AD04C2814D0682815D06A280DD074281F
:100F20001CD07A281AD01DE06269012101989047EF
:100F30006C2802D045F0040514E045F002050DE0F0
:100F400045F020050AE06269012101989047682870
:100F500002D045F0080505E045F40065626901210D
:100F600001989047C4E9015765283DD019DC5828FD
:100F70007AD00CDC452837D004DC252826D041283F
:100F800031D131E046282FD047282CD12CE05B28E6
:100F900077D0612828D063287CD0642823D15AE0F8
:100FA000D0E06F2848D008DC66281DD067281BD009
:100FB000692821D06E2816D127E0702845D07328E3
:100FC00068D0752847D078280DD14DE0A1690B98DD
:100FD0008847054625283FF469AFE1690B988847A3
:100FE0006D1C3FF46AAFB3E023466A466FF0010020
:100FF0000B99FFF747FA9EE045F040006060A807B4
:1010000023464FF0000236D43EE0E8077FF447AFB6
:101010002068011D21600068290501D506701BE7C5
:10102000290701D5068017E7A90703D5F117C0E9FD
:10103000006111E706600FE745F040006060A80717
:1010400023464FF0080216D41EE040F60E0125EAB2
:101050000100606016E045F040006060A80723468C
:101060004FF00A0207D40FE045F040006060A80787
:1010700008D5234610226FF001000B99AFF30080D2
:1010800059E007E0234610226FF001000B99AFF3FF
:10109000008050E04FF000094F464B46632802D0D5
:1010A0005B2806D040E0E80601D40120A0600127BB
:1010B0003AE062690121019890475E2805D14FF01E
:1010C00001096269494601989047216939B90021AF
:1010D0000A46534643F82120491C0829FADBB0B3DD
:1010E000216969B9C11700EBD16253110AEB830181
:1010F00022F01F02821A01200B68904003430B600C
:1011000062690121019890475D28E8D1B9F1000F8B
:1011100009D00020514651F82020D24341F8202028
:10112000401C0828F7DB02AB224600976FF0010055
:101130000B99AFF3008000280CDA401C08D1BBF1FA
:10114000000F05D04FF0FF300DB0BDE8F08FFFE786
:101150004046F9E7E90701D108F1010806444FF0DC
:10116000000B79E6CCCCCC0C7F2801D9002208E01A
:10117000064A02EB5002C007127800D1120902F0B1
:101180000F020120904008407047000050DF000827
:1011900070B58C1810F8015B15F0070301D110F839
:1011A000013B2A1106D110F8012B03E010F8016B66
:1011B00001F8016B5B1EF9D12B0705D40023521EE9
:1011C0000DD401F8013BFAE710F8013BCB1A921C51
:1011D00003E013F8015B01F8015B521EF9D5A1424F
:1011E000D8D3002070BD0000B7EE000A80ED000AE1
:1011F0009FED040A80ED010A80ED020A80ED030AEA
:10120000704700000000000001221021014801F099
:10121000EABD00000000024000221021014801F058
:10122000E2BD0000000002407047000001221146AC
:10123000014801F0D8BD0000000402400022012155
:10124000014801F0D0BD00000004024030B54378F1
:1012500004781B021BB2234300EE103A194CB8EE7F
:10126000C00AD4ED010A20EE200A81ED000AC378FD
:1012700085781B021BB22B4300EE103AD4ED010A15
:10128000B8EEC00A20EE200A81ED010A4379047904
:101290001B021BB2234300EE103AB8EEC00A20EE48
:1012A000200ADFED090A81ED020AD0F8060020F0DD
:1012B0007F4000EE100AB8EE400A20EE200A82EDD0
:1012C000000A30BDD001002000401C4270470BF0E6
:1012D000D5B80AF031BE000010B54278037812028A
:1012E00012B21A4300EE102A124BB8EEC00AD3ED28
:1012F000020A20EE200A81ED000AC27884781202E8
:1013000012B2224300EE102AD3ED020AB8EEC00A50
:1013100020EE200A81ED010A42790079120212B210
:10132000024300EE102AB8EEC00A20EE200A81ED3A
:10133000020A10BDD001002010B5FFF775FFFFF7BE
:10134000C5FF09F09DFD08B1802402E009F004FD0D
:10135000044609F06DFF10B144F0400010BD09F0E3
:10136000F9FE204310BD00002DE9FC410746002096
:1013700016460D4600900190FFF74EFF922000F0B8
:10138000BDF806226946122000F09AF8FFF73CFFEC
:101390009DF801009DF80010000200B2084300EE25
:1013A000100A464CB8EEC00AD4ED010A20EE200A1D
:1013B00085ED000A9DF803009DF80210000200B2BE
:1013C000084300EE100AD4ED010AB8EEC00A20EE80
:1013D000200A85ED010A9DF805009DF80410000221
:1013E00000B2084300EE100AB8EEC00A20EE200A50
:1013F00085ED020AFFF722FF08226946002000F06F
:101400005FF8FFF713FF9DF800000F2830D19DF81B
:1014100003009DF80210000200B2084300EE100A1B
:10142000D4ED020AB8EEC00A20EE200A87ED000AC9
:101430009DF805009DF80410000200B2084300EE7C
:10144000100AD4ED020AB8EEC00A20EE200A87ED99
:10145000010A9DF807009DF80610000200B208433B
:1014600000EE100AB8EEC00A20EE200A87ED020A4C
:10147000FFF7D2FEA22000F041F8022269462220A6
:1014800000F01EF8FFF7C0FE9DF800009DF8011067
:10149000C00040EA5110B0F5806F01DBA0F500609C
:1014A00000EE100AB4EE001AF8EEC00AB3EE070A16
:1014B00000EE810A86ED000ABDE8FC81D001002023
:1014C00070B514460D4640F0800000F017F806E0B5
:1014D000552000F013F8641E05F8010BE4B2002C4F
:1014E000F6D170BD10B50C4640F0800000F006F853
:1014F000552000F003F8207010BD000001B582B047
:101500004FF47A700090012301AA02A9024802F068
:10151000B3FF9DF804000EBD8806002002784078D5
:10152000D20042EA5010B0F5806F01DBA0F50060F8
:1015300000EE100AB4EE001AF8EEC00AB3EE070A85
:1015400000EE810A81ED000A704710B50C46FFF7E6
:10155000D5FF2046BDE81040FFF7D0BFFEE70000F2
:1015600000B58BB000200121CDE906010590009067
:1015700001900290039004900E20CDE90810694676
:10158000054800F05FFD0221034800F0E5FC024839
:1015900001F010F90BB000BDE4050020014800F097
:1015A0004CBE0000E4050020014800F046BE0000EB
:1015B000E4050020014800F040BE0000E4050020E2
:1015C00000B58BB001220E2100200792CDE9051055
:1015D00003900490CDE908210090019002906946A3
:1015E000054800F02FFD0221034800F0B5FC024839
:1015F00001F0E0F80BB000BD0C060020014800F03F
:101600001CBE00000C060020014800F016BE0000C1
:101610000C060020002070470020704710B5002203
:101620000449054805F082FE0449034805F071FEAF
:10163000002010BD90610020B4540020905900207B
:1016400010B50446088881B2204600F017F8084813
:101650002168016061684160218901812146054856
:1016600005F057FE034805F02DFE002010BD0000D8
:10167000584C0020B454002000207047094A10B58F
:10168000D2F8BC22D2F814220AB1012010BD0A46B9
:101690000146044805F04AFEBDE81040014805F047
:1016A000BFBE0000B45400202DED0A8B00252C464F
:1016B0003A483B4F00F11801D0EC04AAA7F5A079F5
:1016C000A7F1A008D0ED049A90ED05AA91EC038A49
:1016D00004EB840607EBC600B0EE6B1AF0EE4B0A83
:1016E000B0EE6A0A0AF0DBFFB0EE4A1AF0EE690AC1
:1016F000B0EE4C0A09EBC6000AF0D1FFB0EE491A71
:10170000F0EE680AB0EE480A08EBC6000AF0C7FF20
:10171000641C042CDCDB234901F5F67005F0F9FDAF
:10172000214FDFF88890DFF888A09FED228ADFF84C
:1017300088B0DFF88880224C224E388848B199ED75
:10174000000ADAED000A30EE600A30EE480A8BED4E
:10175000000A85B940F6AF61A8F8001040F2BB61FD
:10176000A8F8021040F22E41A8F8041040F2BE6121
:10177000A8F80610012507F0B7FA09F01FFEB6F821
:1017800060002080B6F85100608036210C4809F0D6
:1017900001FE0A200AF072FECFE70000B8DC000864
:1017A000A44D0020584C0020B20000201854002006
:1017B000080100200000B44220010020B4010020F4
:1017C000CA0000208E49002070B5C04CC048C149F5
:1017D0002DED088BB0EE409AF0EE609A94ED010A80
:1017E00084ED050A0068A061098800EE101AB8EEC1
:1017F000400A84ED070A9FEDB80AB849B84D84ED58
:10180000080A04F16806884208DDBDEC088B304602
:101810004FF48051BDE8704004F0F0BAB6F906000C
:10182000B5F91A10401AFFF7D1F841EC100B07F088
:1018300093FEB6F90400B5F91210B0EE408AF0EE4E
:10184000608A401AFFF7C2F841EC100B07F084FEE3
:10185000B6F90200B5F90A10B0EE40AAF0EE60AA9F
:10186000401AFFF7B3F841EC100B07F075FEB6F91C
:101870000000B5F90210B0EE40BAF0EE60BA401ABE
:10188000FFF7A4F841EC100B07F066FEB0EE401A2B
:10189000F0EE601A53EC1B2B51EC110BFEF70EFF10
:1018A00053EC1A2BFEF70AFF53EC182BFEF706FF3A
:1018B00041EC100B84ED1C0B9FED8A1B53EC112B9C
:1018C000FFF7D4F836D0B6F90000B5F90210401A87
:1018D000FFF77CF894ED1C8B53EC182BFFF707F8FF
:1018E000C4E90C01B6F90200B5F90A10401AFFF775
:1018F0006DF853EC182BFEF7FAFFC4E90E01B6F9A8
:101900000400B5F91210401AFFF760F853EC182BD9
:10191000FEF7EDFFC4E91001B6F90600B5F91A109B
:10192000401AFFF753F853EC182BFEF7E0FFC4E919
:10193000120109E09FED6D0B84ED0C0B84ED0E0B95
:1019400084ED100B84ED120B94ED1C0B53EC192B52
:1019500051EC100BFEF7CBFFFFF7B8F8F7EE000ADB
:101960006060B0F17E5F02DDC4ED010A06E010F1B7
:10197000814F03D9BFEE000A84ED010A94ED070AF6
:101980005C4910EE100A0844B0F5201F02D29FED0A
:101990005A0A34E010EE100A58490844B0F5A01F66
:1019A00002D2B6EE080A2AE010EE100A54490844A2
:1019B000B0F5E01F02D2B6EE000A20E010EE100AE9
:1019C00050490844B0F5A00F02D29FED4F0A16E02F
:1019D00010EE100A4D490844B0F5000F02D2B5EEE2
:1019E000000A0CE010EE100A48494942884209DA20
:1019F000B5EEC00AF1EE10FA04DB9FED450A84ED66
:101A0000020A01E0C4ED020AA0680546FFF71BF8D0
:101A100094ED080AD4ED010A41EC190B20EE208A5E
:101A200018EE100AFFF70FF894ED0C1B53EC112B76
:101A3000FEF7EBFE53EC192BFEF7E7FEFEF7E4FF93
:101A400030802846FEF7FFFF41EC190B18EE100A14
:101A5000FEF7F9FF94ED0E1B53EC112BFEF7D5FEAC
:101A600053EC192BFEF7D1FEFEF7CEFF708028460F
:101A7000FEF7E9FF41EC190B18EE100AFEF7E3FF41
:101A800094ED101B53EC112BFEF7BFFE53EC192BFA
:101A9000FEF7BBFEFEF7B8FFB0802846FEF7D3FF87
:101AA00041EC190B18EE100AFEF7CDFF94ED121B56
:101AB00053EC112BFEF7A9FE53EC192BFEF7A5FEF4
:101AC000FEF7A2FFF080BDEC088B70BD2001002066
:101AD000FC000020FA000020000000470000E14365
:101AE000384A002000000000000000000000000054
:101AF0000000D03F0000E0BD6666663F0000F4BD18
:101B0000000010BE000060BE9A99993E0000E0BE41
:101B1000CDCCCC3D88B003F0A7FC04F0AFF9194C54
:101B200008B10120E06004F0EBFB022520216846AB
:101B3000FEF7F0FB684604F005FA00B9E5609DF891
:101B400000005A2818D19DF80E006A2814D1DDF83B
:101B50000100A060DDF8050020619DF80900A0707B
:101B60009DF80A00E0709DF80B0020709DF80C00B5
:101B700020719DF80D0060700AF0A8F901200AF0AC
:101B80007DFCD3E7BC010020014800F0A1BE0000AD
:101B900074090020014800F09BBE0000D409002019
:101BA000014800F095BE0000340A002010B506F090
:101BB000BBFFBDE81040014800F08ABE400700208E
:101BC000014800F085BE0000E0060020014800F05A
:101BD0007FBE0000B4080020014800F079BE00007C
:101BE000940A0020014800F073BE00001409002090
:101BF0002DE9F04F85680024099E802D18D0894D6D
:101C0000C563894D456490F83450012D15D00125E8
:101C100080F8345090F83550012D10D0002180F814
:101C200034100224002180F834102046BDE8F08FE3
:101C30004FF4807141650120F8E70220F6E70225A4
:101C400080F835500025456505682F6847F48027E2
:101C50002F6005682B6103685E608368402B036812
:101C60002AD099600168CA60714D704E704FDFF8DC
:101C7000BC81DFF8B891DFF8B8A1DFF8B4B1EA149D
:101C8000DFF8A8E10168183630379302A9F1480956
:101C90000AF1600A0BF1180BAEF1300E4FF0006C38
:101CA00041452DD9A94205D0494503D0514501D020
:101CB000B14205D1202220E09A600268D160D3E7CA
:101CC00059451AD0714518D0594D7835A94214D0CC
:101CD000564D3035A94210D0B9420BD0534A183A6C
:101CE000914207D0524A9032914203D04F4A483233
:101CF000914201D11A4600E062464C494C392EE02F
:101D0000DFF82C8108F1A80841452AD9A94205D05D
:101D1000494503D0514501D0B14201D120221CE0F8
:101D200059451AD0714518D0414D7835A94214D083
:101D30003E4D3035A94210D0B9420BD03B4A183A3B
:101D4000914207D03A4A9032914203D0374A483202
:101D5000914201D11A4600E06246344950390A6086
:101D60005AE0DFF8CC8008F1480841452AD9A94259
:101D700005D0494503D0514501D0B14201D12022BF
:101D80001CE059451AD0714518D0294D7835A94223
:101D900014D0264D3035A94210D0B9420BD0234A79
:101DA000183A914207D0224A9032914203D01F4AFA
:101DB0004832914201D11A4600E062461C4910396E
:101DC000CA6029E0A94205D0494503D0514501D058
:101DD000B14201D120221CE059451AD0714518D0DA
:101DE000134D7835A94214D0104D3035A94210D08A
:101DF000B9420BD00D4A183A914207D00C4A9032A2
:101E0000914203D0094A4832914201D11A4600E07A
:101E10006246074910398A6001680A6842F0010287
:101E20000A60FFE66DBF0008B9BF000858640240B1
:101E30001060024001681823CAB2103AB2FBF3F2F4
:101E4000054B6FF30901032A9B5CC36500D9091D8B
:101E5000816508467047000098D9000810B5014612
:101E600000208B698A6A4FF0C07453B1B3F5005FEC
:101E700015D072B1012A0CD0022A0AD0032A09D146
:101E800004E01AB1012A06D0022A03D1C96AC901A5
:101E900000D5012010BDC96AA142FAD010BD002AA8
:101EA000F7D0012AF2D0022AF3D0032AF3D010BDD2
:101EB00010B501680A68D20608D5C968C90605D5F3
:101EC0000BF0DAF802484168491C416010BD00007F
:101ED0001401002001680A68D20604D5C968C90641
:101EE00001D50BF0C9B87047704701B5009801E003
:101EF000401E00900028FBD108BD012000F06ABE02
:101F0000102000F067BE202000F064BE72B6FEE72D
:101F100010B558B1084C491E0BD310F8013B534083
:101F2000DBB234F8133083EA1222F4E74FF6FF7085
:101F300010BD104610BD0000B8DA000810B5054C01
:101F400004E000BF10F8013B5340E25C491EF9D2A7
:101F5000104610BDB8D9000890F82020012A07D0FB
:101F6000022A05D0416A41F4802141620120704774
:101F7000006842690A43426100207047F0B590F85A
:101F800020500468A468012D05D0022D03D0416AB9
:101F900041F4802153E014F0406F01D1E5004BD5AE
:101FA000C4F30164022C03D9416A41F4000146E004
:101FB0000125A5401D608D684FF4C0739DB1CE68AA
:101FC00035434E6845EAC605066803EB0417F5512C
:101FD0004FF4C275076805EB04150E697E51097D43
:101FE000012905D009E00E88CD6845EA4655EBE7A2
:101FF00001684E5946F480764E511179D2F8055059
:102000004FF4C67641EA0525016806EB04168D51AA
:102010001178D2F801204FF4C47541EA0221026818
:1020200005EB04155151006803EB0411425842F0CE
:10203000010242500020F0BD416A41F400114162AA
:102040000120F0BD10B590F82020012A07D0022A07
:1020500005D0416A41F480214162012010BD3B4816
:10206000D0F8002242F00102C0F80022D0F800228D
:1020700022F47C52C0F80022D0F800224B6A42EAD7
:102080000322C0F800220A7D02F01F0301229A40B9
:10209000D0F81C329343C0F81C32CB69B3B9D0F8E6
:1020A0000C329343C0F80C328C894B6864F31F43A5
:1020B0004C6900EBC404C4F840320C890B6864F32B
:1020C0001F434C6900EBC404C4F84432CB69012BB4
:1020D00016D1D0F80C321343C0F80C320C884B6880
:1020E00064F31F434C6900EBC404C4F840320C890C
:1020F000CB6864F31F434C6900EBC404C4F844325A
:102100008B69002BD0F804320ED01343C0F8043290
:102110000B69002BD0F8143208D01343C0F81432E6
:10212000096A012904D008E09343EFE79343F5E7F8
:10213000D0F81C121143C0F81C12D0F8001221F084
:102140000101C0F80012002010BD00000064004032
:10215000704730B590F82040012C05D0022C03D0F8
:10216000416A41F480215DE00468002955D024696A
:10217000A40754D04FF4D874056804EB01142D590A
:1021800015F00405956005682D594ED0ED08556091
:1021900005682C5904F00204D4604FF4DA74056821
:1021A00004EB01142D5905F00F05156105682D5933
:1021B000C5F30725956105682C59240C54614FF42B
:1021C000DC72046802EB0112A4581C700468A45865
:1021D000240A5C700468A458240C9C700468A258FB
:1021E000120EDA704FF4DE72046802EB0112A4588A
:1021F0001C710468A458240A5C710468A458240C57
:102200009C710468A258120EDA71006881B10169EC
:1022100041F020010161002030BDE468A8E7416A77
:1022200041F400114162012030BD6D0D1560AFE732
:10223000C16841F02001C160EDE72DE9F05F05467E
:10224000006800244669D0F804908768D0F80CB084
:10225000D0F810A0D0F81880F10748D0F90714D0B2
:1022600001218160B80703D5284600F0D0FA0CE0C0
:10227000780702D54FF4006407E0380702D54FF421
:10228000805402E0284600F0C1FAF80516D5296806
:102290004FF480708860B80503D5284600F0B9FA7D
:1022A0000CE0780502D544F4005407E0380502D567
:1022B00044F4804402E0284600F0AAFAF80316D558
:1022C00029684FF480308860B80303D5284600F0B1
:1022D000A2FA0CE0780302D544F4004407E0380386
:1022E00002D544F4803402E0284600F093FA300727
:1022F00007D55FEACB6004D52968102044F4007448
:10230000C86070074FF0080707D55FEA0B7004D567
:102310002868C760284600F0B1F9B00706D52868DC
:10232000C068800702D0284600F0AAF9700607D5D9
:102330005FEACA6004D52968102044F4806408610B
:10234000B00607D55FEA0A7004D5286807612846F9
:1023500000F02CFAF00606D528680069800702D044
:10236000284600F024FAB00308D55FEAC96005D515
:10237000296810204860284600F01AFAF00307D5B3
:102380005FEA097004D528684760284600F044FADF
:10239000300446D55FEA497040D5F00504D55FEAC0
:1023A000C87001D044F00104B00504D55FEA88701C
:1023B00001D544F00204700504D55FEA487001D5E8
:1023C00044F00404300529D518F0700F26D008F029
:1023D0007000402815D006DC102809D020280AD02B
:1023E000302816D10AE050280ED0602811D10EE016
:1023F00044F008040DE044F010040AE044F0200426
:1024000007E044F0400404E044F0800401E044F4B8
:1024100080742868816921F0700181612968042035
:102420004860002C05D0686A204368622846FFF7A0
:102430008FFEBDE8F09F70B5040003D094F8200033
:1024400010B104E0012070BD204600F081F8206842
:10245000016841F00101016000F0CAFC0546052653
:1024600004E000F0C5FC401B0A2811D82068406831
:10247000C007F6D02068016821F00201016000F079
:10248000B7FC05460BE000F0B3FC401B0A2806D958
:10249000606A40F40030606284F82060D2E720680F
:1024A00040688007EFD4207E0128206801683DD075
:1024B00021F080010160607E01282068016838D029
:1024C00021F040010160A07E01282068016833D01E
:1024D00021F020010160E07E0128206801682ED0F3
:1024E00041F010010160207F01282068016829D097
:1024F00021F008010160607F01282068016824D074
:1025000021F004010160D4E902010843D4E9041276
:10251000114308436168491E08432168C8610020CF
:102520006062012084F82000002070BD41F080012D
:10253000C0E741F04001C5E741F02001CAE721F0C2
:102540001001CFE741F00801D4E741F00401D9E7D9
:10255000F0B587B0044614216846FDF7DBFE424B18
:102560004248DFF800E11968D4F800C03F4A03256B
:102570000226092710300024491CF44532D1196085
:10258000012907D1016841F000710160006800F085
:1025900000700590106840F0080010601068CDE9E8
:1025A000005600F00800CDE9047069463048CDE9D6
:1025B000024500F01BFB00220521132000F0C4FDA2
:1025C000132000F0B3FD00220521142000F0BCFD13
:1025D000142000F0ABFD00220521152000F0B4FD11
:1025E00015203AE0DFF88CE0F44538D1D0F800C08F
:1025F0004CF0806CC0F800C0D0F800C001290CF08D
:10260000806CCDF814C0196007D1016841F00071E9
:102610000160006800F000700590106840F0020052
:102620001060106802AB00F0020005906020CDE958
:10263000000683E8B00069460F4800F0D7FA002290
:1026400005213F2000F080FD3F2000F06FFD0022BB
:102650000521402000F078FD402000F067FD07B024
:10266000F0BD00000064004014000020303802403B
:10267000000C024000680040000402407047000067
:1026800070B5064600684349434D444C8AB08842C1
:1026900051D107AB6A4600213046FFF75AFD00983A
:1026A000472809D0A0F58061043901D107986860F6
:1026B0000098552805D00BE03948BDF81C10018062
:1026C00006E09DF81C00082802D1BDF81D00286016
:1026D0000098A0F20920082815D2BDF81C10C0B23D
:1026E0004BBA304AC0EBC00102EB81008381BDF8D8
:1026F0001E305BBA22F82130BDF8201049BA418360
:102700009DF8221001830098A0F20120072812D81A
:10271000BDF81C10C0B249BA24F83010BDF81E1024
:1027200004EBC00049BA4180BDF8201049BA81804D
:102730009DF82210C1801C493068884227D107AB20
:102740006A4600213046FFF704FD0098A0F2012000
:10275000072812D8BDF81C10C0B249BA24F83010AE
:10276000BDF81E1004EBC00049BA4180BDF820102E
:1027700049BA81809DF82210C1800098552806D161
:102780009DF81C00082802D1BDF81D0028600AB081
:1027900070BD00000064004004010020384A0020A1
:1027A00098010020FC5200200068004070477047EC
:1027B0007047000070B5044690F82000012804D04E
:1027C000606A40F40020606218E0022084F8200073
:1027D0002068016821F00101016000F009FB054655
:1027E0000EE000BF00F004FB401B0A2808D9606A15
:1027F00040F400306062052084F82000012070BDA4
:1028000020684068C007EDD1606270BD70477047B6
:10281000704770477047704770472DE9F041044694
:10282000876D00F0E5FA064694F835000025022889
:1028300006D08020606584F834500120BDE8F08126
:102840002068016821F0160101602068416921F0CB
:1028500080014161206C08B9A06C20B1206801683A
:1028600021F0080101602068016821F00101016088
:102870000CE000F0BDFA801B052807D92020606518
:10288000032084F8350084F83450D7E720680068C6
:10289000C007EED194F85C103F208840B86001205A
:1028A00084F8350084F834500020C7E790F83510DC
:1028B000022903D08021416501207047052180F85D
:1028C00035100068016821F00101016000207047A7
:1028D0002DE9F84304464FF00009CDF80090634815
:1028E0004FF41651A56D0068B0FBF1F72E6894F80F
:1028F0005C10082000FA01F131420FD021680A680B
:1029000052070BD50A6822F004020A6094F85C10A2
:102910008840A860606D40F00100606594F85C102C
:102920004FF0010808FA01F0304208D021684969E7
:10293000090604D5A860606D40F00200606594F857
:102940005C1004208840304208D02168096889075B
:1029500004D5A860606D40F00400606594F85C10D8
:1029600010208840304218D021680968090714D522
:10297000A86020680168490304D50068000308D5F1
:10298000A16C07E00168C90503D4016821F00801C2
:102990000160216C09B12046884794F85C10202022
:1029A0008840304231D021680968C9062DD5A86019
:1029B00094F8350005282068016806D0490347D5FA
:1029C000006800031DD4616C1CE021F01601016059
:1029D0002068416921F080014161206C08B9A06C38
:1029E00020B12068016821F00801016094F85C10B2
:1029F0003F208840A86084F8358084F83490216DA9
:102A00001FE0E16B09B120468847606D00282BD09C
:102A1000606DC00714D0052084F835002068016877
:102A200021F0010101600098401C0090B84203D8D9
:102A300020680068C007F6D184F8358084F83490A7
:102A4000E16C002910D001B02046BDE8F0430847F2
:102A50000168C905D5D4016821F01001016084F82E
:102A6000358084F83490CCE7BDE8F8832800002056
:102A70002DE9F041044600F0BBF906465CB10220A6
:102A800084F83500002584F834502068016821F06E
:102A9000010101600DE00120BDE8F08100F0A8F91E
:102AA000801B052805D920206065032084F83500A7
:102AB000F2E720680068C007F0D12268116820485A
:102AC0000140D4E901031843D4E9033633431843E2
:102AD00063691843A3691843E3691843236A1843D9
:102AE0000843616A042903D1D4E90B13194308434D
:102AF000106020684069666A20F0070130460E4386
:102B0000012704280CD1A06A0643E06A40B12046A0
:102B1000FFF7A4F920B14020606584F83570BAE76A
:102B2000206846612046FFF785F994F85C203F2134
:102B300091408160656584F835700020ACE7000045
:102B40003F8010F070B5044600F052F90546601C55
:102B500002D004480078044400F04AF9401BA04227
:102B6000FAD370BD1C00002010B5184C102818D0E6
:102B700020281FD0012813D10AF0F2FD01280FD020
:102B800004F12001606A0AF011FC206A002807D0D5
:102B90000F494FF080500860BFF34F8FBFF36F8F26
:102BA00010BD607840F001006070A07840F0010036
:102BB000A07003E0207840F001002070E078002849
:102BC000EED0BDE8104009F0F3BA00000802002082
:102BD00004ED00E0044910B50A68024202D0086022
:102BE000FFF7C2FF10BD0000143C01402DE9F84F73
:102BF000DFF8BCA10022012503264FF00F090AF1DE
:102C0000040BAAF1040E00BF0B6805FA02F423407E
:102C1000A34270D10F7907F00307012F01D0022FD3
:102C200016D187684FEA420806FA08FC27EA0C0723
:102C3000D1F80CC00CFA08FC4CEA070CC0F808C02C
:102C40004768A7430C79C4F3001494403C434460A4
:102C50000C79E443A4070AD0C4684FEA420C06FA90
:102C60000CF7BC438F6807FA0CF72743C7600C7951
:102C700004F00304022C12D1D40800EB840CDCF81D
:102C800020405707FF0E09FA07F824EA0804D1F894
:102C9000108008FA07F848EA0408CCF82080046895
:102CA0004FEA420C06FA0CF7BC430F7907F0030712
:102CB00007FA0CF7274307604C6814F4403F70D0C4
:102CC0003C4C276847F480472760246822F00307BC
:102CD00004F480440094384C07EB040CDCF80848FA
:102CE00097074FEA177809FA08F7BC43334FB84201
:102CF00002D1002724E054E0314FB84201D101272E
:102D00001EE0304FB84201D1022719E02E4FB842E1
:102D100001D1032714E02D4FB84201D104270FE061
:102D20002B4FB84201D105270AE02A4FB84201D102
:102D3000062705E0284FB84201D1072700E0082701
:102D400007FA08F72743CCF80878DAF80040574626
:102D5000D1F804C09C435FEACC2C00D51C433C60F6
:102D6000DBF800405F46D1F804C09C435FEA8C2C3E
:102D700000D51C433C60DEF800407746D1F804C023
:102D80009C435FEA8C3C00D51C433C60084F083FE5
:102D90003C68D1F804C09C435FEACC3C00D51C439E
:102DA0003C60521C102AFFF42FAFBDE8F88F0000E2
:102DB000083C01404438024000300140000002401D
:102DC0000004024000080240000C024000100240D3
:102DD0000014024000180240001C02400069084034
:102DE00000D0012070470AB1816170470904FBE7F8
:102DF00001488068704700001C00002070B5040086
:102E000025D094F83D00002520B984F83C50204698
:102E100000F0B8F8242084F83D002068016821F013
:102E2000010101602068016841F4004101602068EF
:102E3000016821F40041016000F0B2FF4D4A616871
:102E4000914201D84C4900E04C49884201D201200E
:102E500070BD4B492368B0FBF1F15E6826F03F0678
:102E60000E435E606368934206D94FF496735943EC
:102E70004FF47A73B1FBF3F12368491C1E6A26F004
:102E80003F06314319626168914210D84900401EE3
:102E9000B0FBF1F2521CC2F30B02042A01D204204F
:102EA00022E0B0FBF1F0401CC0F30B001CE0A26874
:102EB000F2B301EBC10303EB0116431EB3FBF6F3C0
:102EC0005B1C43F480431B0549D092B301EBC10264
:102ED00002EB0111401EB0FBF1F0401CC0F30B00EF
:102EE00040F4804040F400402168CA694CF6FF730A
:102EF0009A431043C861D4E907100143206802686F
:102F000022F0C00211430160D4E9030101432068AB
:102F1000826848F2FF339A4311438160D4E9050186
:102F200008432168CA6822F0FF021043C86001E02C
:102F30000EE016E02068016841F00101016025649F
:102F4000202084F83D00256384F83E50002070BDA9
:102F500001EB4106431EB3FBF6F35B1CB3E7012014
:102F6000C2E701EB4101401EB0FBF1F0401CC0F391
:102F70000B00B7E7A086010080841E0000093D0019
:102F800040420F00F0B587B0044614216846FDF7B3
:102F9000C1F91D492068884233D11C4800240168CA
:102FA00041F004010160016801F00401059101682C
:102FB00041F0010101600068122500F00100059058
:102FC0004FF40070CDE9000502AA0326042782E829
:102FD000D00069460E48FFF709FEB801CDE90005AB
:102FE00002AA694682E8D0000A48FFF7FFFD0748B9
:102FF0001030016841F400010160006800F4000035
:10300000059007B0F0BD0000005C00403038024081
:103010000008024000000240024881680278114422
:10302000816070471C0000200B4810B5016841F416
:1030300000710160016841F480610160016841F440
:1030400080710160032000F09FF80F2000F006F867
:1030500000F050F8002010BD003C024030B505469D
:103060001F4887B00024016841F002010160006838
:1030700006A900F00200009001A800F06BFE049881
:10308000A8B100F08DFE40001649174AB0FBF1F1DF
:103090001648491E026040F2E732C0E90324C0E945
:1030A0000114846101F0DBFA040003D015E000F0A4
:1030B00077FEE9E70D4801F013FB04000DD11D2058
:1030C00000F034F8102D07D2002229461D2000F010
:1030D0003BF80748056000E0012407B0204630BDFA
:1030E0004038024040420F0000040040400C0020E5
:1030F000200000200C4882B0016841F4804101604A
:10310000006800F4804000900748001F016841F00B
:10311000805101600068002200F0805000900F2173
:10312000901E02B000F010B844380240002809DBBD
:1031300000F01F02012191404009800000F1E020D1
:10314000C0F8001170470000F0B40E4B1B680C462D
:10315000C3F30223C3F10705042D00D90425191D6B
:10316000072901D2002300E0DB1E012606FA05F143
:10317000491E214099409E40761E16403143F0BCC6
:1031800005F049BE0CED00E0064900F007020868B2
:103190004FF6FF03184040EA0220034A104308603C
:1031A000704700000CED00E00000FA057047006871
:1031B000416200207047F0B50368586A39B19C6AD3
:1031C0004FF4827600EB144400204D1E0AE040EAE2
:1031D000024098620FE006EB8007DF59401C04EBC9
:1031E0001744C0B2A842F6D344EA02404FF48072BA
:1031F00002EB810158500020F0BDD0F8080504F022
:1032000095BB01EBC10200EB8202D0F80805D26C3D
:1032100004F0EABA01EBC10200EB8202D0F8080523
:10322000D2F88C2204F03BBBD0F8080504F080BB38
:103230000A0601F00F0101EBC10100EB810101D58C
:103240003C3101E001F51F71006805F0B5BA70B5B9
:1032500004460B0601F00F0000EBC00104EB8101F6
:103260004FF001024FF0000503D581F83D203C31BD
:1032700003E081F87D5201F51F71087094F8BC04D9
:10328000012808D084F8BC24206804F04FFF84F89B
:10329000BC54002070BD022070BD70B5044601F022
:1032A0000F006268904201D9012070BD0B0601F049
:1032B0000F0101EBC10104EB81014FF001024FF05E
:1032C000000503D581F83D203C3103E081F87D52B3
:1032D00001F51F718D70087094F8BC04012808D0A6
:1032E00084F8BC24206805F01DF984F8BC54002043
:1032F00070BD022070BD01F00F0101EBC10100EBB8
:103300008100D0F89C0270472DE9F04104460F0679
:1033100001F00F0000EBC00104EB81014FF001064A
:103320004FF0000503D581F83D603C3103E081F8A2
:103330007D5201F51F710870CA600B714A7802B1A5
:103340000881022B00D14D7194F8BC04012809D0EA
:1033500084F8BC64206804F041FE284684F8BC541C
:10336000BDE8F0810220FBE770B50C4601F00F05C7
:1033700005EBC50100EB8101C1F89432C1F88C2244
:103380000023C1F89C3281F87D3281F87C520369B8
:1033900001F51F71012B00D14A612207027C0068F0
:1033A00003D005F017F9002070BD05F001F8FAE729
:1033B00070B504460D4601F00F006168884201D9DE
:1033C000012070BD29064FF000064FF0010207D51D
:1033D00000EBC00104EB810181F83D203C3107E0A6
:1033E00005EBC50104EB810181F87D6201F51F71D8
:1033F0008A70087094F8BC04012807D084F8BC24B3
:10340000206805F0BBF8280702D007E0022070BD55
:10341000217C04F2C442206805F058F884F8BC64AA
:10342000002070BD70B50C4601F00F0505EBC5011D
:1034300000EB81014B65CA640023CB65012381F851
:103440003D3001F83C5F0369012B00D14A6122073E
:10345000027C006803D005F0BDF8002070BD04F0C8
:10346000A7FFFAE72DE9FC5F05680446284605F04A
:1034700044FA00287DD1206805F06BFA002878D046
:10348000D5F80808C0F30D20C4F8FC04206805F046
:1034900060FA800704D52068416901F002014161AA
:1034A000206805F056FAC10604F2C440009034D5F5
:1034B0002068816921F0100181612F6A07F00F00F7
:1034C00000EBC00004EB8006C7F3434006F51F760F
:1034D000022802D0062811D01AE047F6F070074201
:1034E00016D0C7F30A1217462846316905F035FA97
:1034F000306938443061306A384408E00822284690
:10350000009905F02AFA306AC7F30A1108443062BC
:103510002068816941F010018161206805F019FA85
:1035200000034FF0080B4FF0000A4FF001097CD563
:103530000026206805F0ECF9074674E0F80770D023
:10354000F1B2206805F0FDF98046C00707D005EB11
:103550004611C1F8089B3146204602F057FD5FEA4C
:10356000087024D505EB4611C1F808BB2068016C32
:1035700000E025E200EB46100191D0F8082BFC4B4F
:10358000994205D9110403D54FF40041C0F8081B36
:10359000204600F005FBF6490198884207D92069CA
:1035A000012804D120680121009A04F08FFF5FEA0E
:1035B000C86004D505EB46111020C1F8080B5FEA7E
:1035C00088701DD56869000605D5D5F8040840F453
:1035D0008061C5F8041806EBC60004EB800090F883
:1035E0007F1200F51F70012905D180F803A0F1B208
:1035F000204600F0EBF905EB46110220C1F8080B5C
:103600005FEA886004D505EB46102021C0F8081B4E
:103610005FEA884005D505EB46104FF40051C0F82D
:10362000081B7F08761C002F88D1206805F091F9CF
:1036300040036FD5206805F064F90746002667E06F
:10364000F80763D0F1B2206805F069F98046C00739
:1036500023D006F00F0209FA02F0D5F8342882438D
:10366000C5F8342805EB4610C0F8089920690128F0
:103670000FD106EBC60004EB8000D0E91221114403
:10368000C16436B9606D20B920680121009A04F048
:103690001DFFF1B22046FFF7B4FD5FEA087003D5C5
:1036A00005EB4611C1F808B95FEAC86004D505EB1F
:1036B00046111020C1F808095FEA486004D505EBFF
:1036C00046104021C0F808195FEA887017D53146C6
:1036D000284605F0E5F806EBC60004EB800090F8FC
:1036E0003F103C30012905D180F803A0F1B22046FB
:1036F00000F068F905EB46110220C1F808095FEAFD
:10370000086003D53146204602F0E6FC7F08761CAF
:10371000002F95D1206805F01CF9002811DAD5F8A2
:10372000040820F00101C5F8041894F8F4040128F5
:103730002BD0204600F018FA2068416901F00041C2
:103740004161206805F005F900050BD5D5F808089A
:10375000C00702D0204600F04BFA2068416901F40E
:1037600000614161206805F0F4F8C00466D5D5F821
:10377000040820F00100C5F804081021206805F0B5
:103780008FF800214FF67F321FE084F8F4A4002167
:103790002046FFF70BFDCFE705EB4110C0F80829E5
:1037A000D0F8003923F40013C0F80039C0F8082B12
:1037B000D0F8003B23F40013C0F8003BD0F8003BE6
:1037C00043F00063C0F8003B491C60688842E3D8BE
:1037D000D5F81C0840F00111C5F81C18206B002812
:1037E00028460DD0D0F8840840F00B01C5F88418A5
:1037F000D5F8440840F00B012846C5F844180DE000
:10380000D0F8140842F22B010843C5F81408D5F883
:10381000100840F00B012846C5F81018D0F8000831
:1038200020F4FE61C5F80018217C2068009A04F09D
:103830004DFE2068416901F480514161206805F026
:1038400088F8800415D5206804F008FC206805F08D
:1038500047F8E06000F09EFA0146227B206805F000
:10386000DBF8204600F06AF92068416901F4005154
:103870004161206805F06DF8000707D5204600F08B
:1038800077F92068416901F008014161206805F07D
:1038900060F8000616D5A86920F08000A86101260E
:1038A0000DE000BF06EBC60004EB800090F87F023D
:1038B000012803D1F1B22046FFF7BAFC761C6068FC
:1038C000B042EFD8206805F044F8C00221D50126A7
:1038D0004F4616E005EB4610D0F8001906EBC6007F
:1038E00004EB800090F84020012A09D1002907DA72
:1038F00080F83F70F0B240F080012046FFF798FC5E
:10390000761C6068B042E5D82068416901F48011F6
:103910004161206805F01DF8800234D501204B4636
:1039200029E000BF05EB4011D1F8001B00EBC002FD
:1039300004EB820696F88022012A1BD1002919DAAD
:1039400094F8FC2401F4803102F00102914211D17B
:1039500086F87F32A96941F08002AA616969090687
:1039600008D4D5F8040840F40070C5F8040805E050
:103970000A30544F401C61688142D3D820684169A5
:1039800001F400114161206804F0E3FF400007D515
:103990002046FFF732FC2068416901F08041416117
:1039A000206804F0D6FF40070AD5206845686807FC
:1039B00002D52046FFF738FC206841682943416062
:1039C000BDE8FC9FD0F8080504F006B8D0F808055B
:1039D00004F016B82DE9F0418AB0040005D094F83F
:1039E000BD042668002520B108E001200AB0BDE82A
:1039F000F08184F8BC54204600F05EF8032084F87F
:103A0000BD04F06BC00500D42561206804F0CAFC39
:103A100004F11001282288466846FCF762FC94E80D
:103A20000F0004F029FB0226C8BB0021206804F027
:103A3000B3FF002001270EE000EBC00104EB810181
:103A400081F83D7001F83C0F08810D71CD600D616A
:103A5000401CC0B28D6161688142EDD8002011E048
:103A600000EBC00104EB810181F87D5281F87C02FA
:103A700081F88052C1F88852C1F88C52401CC0B203
:103A8000C1F8945261688142EAD8282241466846CA
:103A9000FCF727FC94E80F0004F0CAFB10B184F88F
:103AA000BD64A2E784F8385084F8BD74206804F03F
:103AB000B1FB00209AE7000010B586B0044614213F
:103AC0006846FCF727FC2068B0F1A04F2FD11948B9
:103AD0000021026842F001020260006800F001006B
:103AE00005904FF4C05000900220CDE90101032061
:103AF00003900A20049069460F48FFF777F80D48B5
:103B0000001D016841F0800101600A48143001681D
:103B100041F4804101600068002200F4804005907B
:103B200005214320FFF710FB4320FFF7FFFA06B003
:103B300010BD0000303802400000024070B504465D
:103B4000C068012570B1022801D0FEF7DFF92946CF
:103B5000D4F8080503F0C2FFD4F80805BDE87040AA
:103B600003F077BF0025F2E7D0F8080503F09FBF08
:103B7000D0F8080503F0A5BF10B5044690F8BC04C2
:103B800001280BD0012084F8BC0484F83810206888
:103B900004F030FF002084F8BC0410BD022010BDEA
:103BA000D0F8082500F2C441104603F0A3BF10B5B9
:103BB0000446006894F8BC14012906D0012184F859
:103BC000BC14A16A012902D008E0022010BDA1693D
:103BD000012903D0816B41F480318163206804F0B6
:103BE0003AFE206804F008FB002084F8BC0410BDF5
:103BF00010B50446D0F8080503F0BEFF2068D0F8E1
:103C0000001E41F00101C0F8001E206A002804D007
:103C10000248016841F00601016010BD10ED00E0AE
:103C20002DE9F0470E46050065D0DFF81481D8F87D
:103C30000000F7B200F00700B04207D288F8007029
:103C4000D8F8000000F00700B04254D128683D4C7D
:103C5000810712D5400703D5206840F4E05020606A
:103C60002878000703D5206840F460402060206871
:103C7000A96820F0F000084320602878C0072DD004
:103C8000304968680839012812D0022813D0032867
:103C900011D00968890700292DDA216821F0030174
:103CA00001432160FFF7A4F8814641F2883A0EE013
:103CB00009688903EFE709688901ECE7FFF798F8DD
:103CC000A0EB0901514502D90320BDE8F087206827
:103CD000696800F00C00B0EB810FEFD1D8F800104C
:103CE000404601F00701B14207D90770006800F0B3
:103CF0000700B04201D00120E7E72878400705D54A
:103D00002068E96820F4E050084320602878000724
:103D100006D52068296920F4604040EAC10020608F
:103D200000F05EF82168084AC1F30311515CC840F5
:103D30000649086006480068FFF790F90020C4E7CC
:103D4000003C024008380240A0D9000828000020AA
:103D5000200000200F2202600C4A136803F00303C6
:103D60004360136803F0F0038360136803F4E053C7
:103D7000C36012684FF4E05303EAD20202610448C0
:103D8000006800F007000860704700000838024033
:103D9000003C0240014800687047000028000020F5
:103DA0000448054900680968044AC1F38221515C4E
:103DB000C84070472800002008380240B0D90008E9
:103DC0000448054900680968044AC1F34231515C5E
:103DD000C84070472800002008380240B0D90008C9
:103DE000154810B5006810F00C02144813D014499F
:103DF000042A0FD0082A0ED10F4C241F22682368F2
:103E000002F03F025B0207D52068C0F38810A0FBD8
:103E1000010106E0084610BD2168C1F38811A1FB2D
:103E200000010023FCF72CFA2168C1F30141491C71
:103E30004900B0FBF1F010BD083802400024F40046
:103E4000001BB7002DE9F84F04006ED02078DFF892
:103E50004C93C007A9F104054AD009F10400016898
:103E6000C1F38101012908D00068C0F38100022854
:103E70000AD1D9F80000400206D52868800337D55A
:103E800060680028E1D033E06068B0F5803F10D072
:103E9000B0F5A02F286810D020F480302860286862
:103EA00020F4802028606068A8B1FEF7A1FF0646D4
:103EB0000DE0286840F48030F4E740F4802028606A
:103EC000F7E700BFFEF794FF801B642873D82868CB
:103ED0008003F7D50CE0FEF78BFF064605E000BF38
:103EE000FEF786FF801B6428F0D828688003F7D48B
:103EF0002078DFF8AC8280074FF0000A3ED5A74853
:103F0000001D016811F00C0F08D00068C0F381009B
:103F100002280BD1D9F80000400207D42868800796
:103F200016D5E068012800D112E033E1E068B8B1AD
:103F30000120C8F80000FEF75BFF064605E000BF61
:103F4000FEF756FF801B0228C0D828688007F7D5E7
:103F50002868216920F0F80040EAC10028600DE0DF
:103F6000C8F800A0FEF744FF064604E0FEF740FF55
:103F7000801B02281FD828688007F7D42078000704
:103F800022D5864F87486169703771B10121016080
:103F9000FEF72EFF064604E0FEF72AFF801B0228EC
:103FA00009D838688007F7D50EE0C0F800A0FEF702
:103FB0001FFF064605E082E0FEF71AFF801B02287D
:103FC0007DD838688007F7D42078400768D5DFF8B7
:103FD000CCB100270BF13C0BDBF80000C0000BD488
:103FE000DBF8001041F08051CBF80010DBF8000046
:103FF000012700F0805000906B4E3068C00510D44F
:10400000306840F480703060FEF7F2FE009005E00A
:10401000FEF7EEFE0099401A022850D83068C0051D
:10402000F6D55E4EA0686C3601280FD005283068A2
:1040300010D020F001003060306820F004003060C3
:10404000A068B8B1FEF7D4FE00900FE0306840F0F1
:104050000100F4E740F004003060F7E7FEF7C8FE27
:104060000099411A41F28830814266D83068800751
:10407000F4D50EE0FEF7BCFE009007E0FEF7B8FEB8
:104080000099411A41F28830814256D83068800741
:10409000F4D42FB1DBF8001021F08051CBF80010E0
:1040A000A069C8B33D49091D0968C1F3810102290E
:1040B0004AD00228504607D0C8F8600000E03CE033
:1040C000FEF796FE04463BE04746C8F86000FEF760
:1040D0008FFE064605E000BFFEF78AFE801B022821
:1040E0002BD828688001F7D4D4E907010843A16AD6
:1040F0002E4A490802EB0141626A41EA82110843F3
:1041000094F82C1040EA0161C9F8001001203866CB
:10411000FEF76EFE044606E03EE000BFFEF768FED6
:10412000001B022809D828688001F7D534E000BFB9
:10413000FEF75EFE001B022802D90320BDE8F88FBF
:1041400028688001F4D427E00128F7D0D9F80000CE
:10415000E26900F4800191421CD1226A00F03F0123
:10416000914217D147F6C071626A0140B1EB821FDC
:1041700010D1A26A4FF0FF3300F4403103EB52023A
:10418000B1EB024F06D194F82C1000F07060B0EB48
:10419000016F01D00120D1E70020CFE704380240B1
:1041A00000004742800E4742007000400000FFFFC1
:1041B0007047000038B5016804464A688868C04303
:1041C000430606D5C30704D1D3435B0601D4216C53
:1041D00005E0830708D4D3431B0605D4616C01B006
:1041E0002046BDE830400847830603D5430601D585
:1041F000C30551D4D3439B064ED443060AD494F846
:104200005130032B49D0636D43F004036365CB68E1
:104210008B680093830609D4636D43F001036365E3
:104220008B6800930B6823F040030B60C00506D435
:10423000606D40F008006065206880680090606DE7
:10424000002829D02068416821F0E0014160012068
:1042500084F85100900701D4D00722D0206841682B
:1042600021F003014160114DE06C40B10565E06C47
:10427000FEF71CFB18B1606D40F040006065A06C5B
:10428000002809D00565A06CFEF710FB002803D0BC
:10429000606D40F04000606538BDC8688868009077
:1042A00038BD2046FFF784FF38BD000035650008A3
:1042B00070B5040009D0606A002540B125616561D0
:1042C000A56294F8510040B10CE0012070BD606817
:1042D000B0F5827FF4D0E561F2E784F850502046D3
:1042E00000F044F8022084F851002068016821F0B1
:1042F00040010160A088218900F4827001F404412A
:104300000843A18901F400610843217C01F0020106
:104310000843217D01F001010843218B01F4007164
:104320000843217F01F03801084394F8201001F080
:1043300080010843218D01F4005108432168086081
:10434000A069042101EA104094F8241001F0100142
:104350000843216848602068C16921F40061C16197
:104360006565012084F85100002070BD2DE9F043FF
:1043700087B0064614216846FBF7CCFF3849306801
:10438000884269D137480025016841F480510160B5
:10439000006800F48050059032481438016841F0FC
:1043A00002010160016801F002010591016841F01C
:1043B000010101600068022400F00100059018204E
:1043C00001274FF003084FF005098DE89103694676
:1043D0002548FEF70BFC80208DE8910369462348B1
:1043E000FEF704FC234C22484FF0C067E4E80207C4
:1043F00040204FF48068A4E82101C00244F8145919
:10440000A561C4E907501B486562FEF731FB08B19E
:10441000FDF77CFDB464A663164C1548603418386B
:104420002060C4E90175C4E9035865614FF4403068
:10443000A561C4E9075020466562FEF719FB08B183
:10444000FDF764FDF464002205212320A663FEF736
:104450007BFE2320FEF76AFE07B0BDE8F083000074
:104460000030014044380240000402400000024095
:1044700058640240E00600202DE9F84F044690F809
:10448000500000270A9E1D4692468B464FF00109B8
:1044900001280ED0012084F85000FEF7A9FC8046C8
:1044A00094F85100616801280CD0B1F5827F07D1E2
:1044B00002E00220BDE8F88FA16809B9042801D004
:1044C0000227C2E0BBF1000F27D0BAF1000F24D0C1
:1044D0001DB394F85100042802D0052084F851003F
:1044E00000206065C4F838A0E587A587C4F830B01F
:1044F000E586A5862064606420680168490603D4C7
:10450000016841F040010160E068B0F5006F60684B
:1045100005D0E8B3012D46D07FE0012795E008B132
:10452000012D39D1206B21680088C860206B801C68
:104530002063E08E401EE0862EE0206881688907B7
:104540000FD5E18E69B1B9F1010F0AD1216B09884C
:10455000C160206B801C2063E08E401EE0864FF01F
:10456000000920688168C9070CD0E18F51B1C0688B
:10457000A16B0880A06B801CA063E08F401EE087C9
:104580004FF00109FEF734FCA0EB0800B04200E058
:1045900009E001D3701C50D1E08E0028CDD1E08F0E
:1045A0000028CAD13FE0206B216800780873206B97
:1045B000401C2063E08E401EE0862EE0206881686B
:1045C00089070FD5E18E69B1B9F1010F0AD1216BCD
:1045D00009780173206B401C2063E08E401EE0864A
:1045E0004FF0000920688168C9070CD0E18F51B1F4
:1045F000C068A16B0870A06B401CA063E08F401ED8
:10460000E0874FF00109FEF7F3FBA0EB0800B04292
:1046100002D3701C01D010E07EB1E08E0028CDD115
:10462000E08F0028CAD142463146204601F08AFF79
:1046300028B101272020606507E0032705E0A06876
:1046400018B92068C16880680090012084F8510082
:10465000002084F8500038462CE77047704710B5AA
:10466000040003D094F83D0010B107E0012010BD14
:10467000002084F83C00204600F01EF8022084F858
:104680003D00211D206802F095F8012084F84600C5
:1046900084F83E0084F83F0084F8400084F841002C
:1046A00084F8420084F8430084F8440084F845000C
:1046B00084F83D00002010BD08B500680649884216
:1046C00008D10648016841F400310160006800F437
:1046D0000030009008BD0000004401404438024012
:1046E00090F83D10012901D001207047022180F887
:1046F0003D100168CA6842F00102CA6000681149B1
:10470000884214D0B0F1804F11D00F4988420ED0AA
:104710000E4988420BD00E49884208D00D49884284
:1047200005D00D49884202D00C49884204D18168E5
:1047300001F00701062903D0016841F00101016081
:1047400000207047000001400004004000080040C5
:10475000000C0040000401400040014000180040EF
:10476000704770B50446006801694FF00005C94301
:10477000890715D4C168C943890711D4E91E0161AD
:1047800001202077206880698007204602D0FFF74B
:10479000E7FF04E000F0C2F8204600F054F9257766
:1047A00020680169C943490717D4C168C94349074B
:1047B00013D46FF004010161022020772068806922
:1047C00010F4407F204602D0FFF7CAFF04E000F05B
:1047D000A5F8204600F037F9257720680169C9431C
:1047E000090716D4C168C943090712D46FF008013C
:1047F0000161042020772068C0698007204602D02C
:10480000FFF7AEFF04E000F089F8204600F01BF946
:10481000257720680169C943C90617D4C168C9430F
:10482000C90613D46FF010010161082020772068B9
:10483000C06910F4407F204602D0FFF791FF04E0EA
:1048400000F06CF8204600F0FEF82577206801693A
:10485000C943C90708D1C168C943C90704D1891E22
:104860000161204600F054F920680169C943090636
:1048700009D4C168C943090605D46FF080010161FC
:104880002046FFF7EAFE20680169C943490609D4BA
:10489000C168C943490605D46FF040010161204653
:1048A00000F040F920680169C94389060BD4C1684A
:1048B000C943890607D46FF0200101612046BDE895
:1048C0007040FFF7CBBE70BD10B586B00446142112
:1048D0006846FBF71FFD0E492068884215D10D4838
:1048E000016841F0200101600068012100F0200012
:1048F0000590402000900220CDE9010103900320A3
:10490000049069460448FEF771F906B010BD000036
:10491000004401403038024000140240704770B536
:10492000044690F83C0000260D4601280FD00120D7
:1049300084F83C006AB1042A1DD0082A2FD00C2A22
:104940003FD00126002084F83C00304670BD022094
:1049500070BD206801F0A0FF2068816941F0080166
:1049600081612068816921F0040181612068816989
:104970002A69114311E0206801F0BEFF20688169B7
:1049800041F4006181612068816921F48061816165
:10499000206881692A6941EA02218161D2E72068A1
:1049A00001F0E0FF2068C16941F00801C1612068A1
:1049B000C16921F00401C1612068C1692A691143FC
:1049C00011E0206802F002F82068C16941F400613A
:1049D000C1612068C16921F48061C1612068C16939
:1049E0002A6941EA0221C161ACE710B5040003D095
:1049F00094F83D0010B107E0012010BD002084F8BC
:104A00003C00204600F01EF8022084F83D00211DE5
:104A1000206801F0CFFE012084F8460084F83E00B3
:104A200084F83F0084F8400084F8410084F8420094
:104A300084F8430084F8440084F8450084F83D007D
:104A4000002010BD7047704710B50446022249B1DE
:104A500004290ED0082913D094F84100012816D05B
:104A6000012010BD94F83E000128F9D184F83E20C1
:104A70000FE094F83F000128F2D184F83F2008E0CD
:104A800094F840000128EBD184F8402001E084F83C
:104A900041200122206801F0F1FE16492068164AE3
:104AA000884201D0904203D1436C43F400434364F5
:104AB0002068884213D0B0F1804F10D00F4988424F
:104AC0000DD00F4988420AD00E49884207D0904243
:104AD00005D00D49884202D00C49884204D1816832
:104AE00001F00701062903D0016841F001010160CE
:104AF000002010BD000001400004014000040040FF
:104B000000080040000C0040004001400018004038
:104B100000680349884201D1FEF77EBA7047000061
:104B2000000400407047704770470000F8B5016806
:104B300004460868CA684B6910F00F0F4FF0000573
:104B40005AD003F0010602F49077374365D0C107CD
:104B500005D0D10503D5216C41F001012164410745
:104B600005D5D90703D0216C41F0020121648107EA
:104B700005D5D90703D0216C41F004012164010758
:104B800007D502F02001314303D0216C41F0080128
:104B90002164216C00293BD0800604D5900602D503
:104BA000204601F06AFF20684069216CC0F3801044
:104BB00001F00801014320462BD001F037FF2068A7
:104BC0004069400621D52068143050E8001F21F0CC
:104BD000400140E80012002AF5D1A06BA8B16C4951
:104BE0000165A06BFDF762FE002811D0A06B016D7E
:104BF00001B0BDE8F040084783060ED593060CD5FA
:104C00002046BDE8F84001F038BF2046FFF78CFF92
:104C1000F8BDFFF789FF2564F8BD266B2023012E20
:104C200079D1C60677D5D60675D50868486800904C
:104C30004869400640D5A16B086840680004000C34
:104C4000EAD0A28D8242E7D9E085C869B0F5807FBD
:104C50002DD020680C3050E8001F21F4807140E80E
:104C60000012002AF5D12068143050E8001F21F00E
:104C7000010140E80012002AF5D12068143050E804
:104C8000001F21F0400140E80012002AF5D184F80D
:104C90003E30256320680C3050E8001F21F01001E1
:104CA00040E80012002AF5D1A06BFDF7B6FDA08DFB
:104CB000E18D401A81B229E0A08DE18D401A81B2C8
:104CC000E08D0028A8D00029A6D020680C3050E83C
:104CD000002F22F4907240E80026002EF5D12068C3
:104CE000143050E8002F22F0010240E80026002E88
:104CF000F5D184F83E30256320680C3050E8002F51
:104D000022F0100240E80023002BF5D12046FFF7E7
:104D10000AFFF8BDFFE705062BD5150629D594F83F
:104D20003D002128F5D1A068B0F5805F01D1206950
:104D3000B0B1206A411C2162216800784860E08C93
:104D4000401E0004000CE084E3D12068C16821F01B
:104D50008001C1602068C16841F04001C160D8E7AE
:104D6000206A0088C0F308004860206A801C206226
:104D7000E5E74006CDD55006CBD5CA68204622F0DF
:104D80004002CA6084F83D3000F011FAC1E700002B
:104D90001D6A000870B5040004D094F83D00002599
:104DA00010B106E0012070BD84F83C50204600F0B0
:104DB00023F8242084F83D002068C16821F40051C4
:104DC000C160204601F0BAFE2068016921F49041DB
:104DD00001612068416921F02A0141612068C168B0
:104DE00041F40051C1602564202084F83D0084F81E
:104DF0003E00002070BD00002DE9F04F87B0044652
:104E000014216846FBF786FAA648DFF89482143826
:104E1000D4F800C0A34B0221032240270025061529
:104E20004FF00709C44574D1D3F800C0AA464CF02E
:104E3000100CC3F800C01B6803F01003059303684F
:104E400043F002030360036803F002030593036861
:104E500043F0010303600068884600F001000590FC
:104E60008020CDE90008CDE9025293466946CDF88D
:104E700010908D48FDF7BAFE7010CDE90008CDE91D
:104E8000025B6946CDF810908848FDF7AFFEDFF869
:104E90002492874948464FF00068C9F80010C0E9DD
:104EA0000185C0E90356C9F81450C9F81850C9F86B
:104EB0001C50C9F82050C9F82450FDF7D9FD08B19D
:104EC000FDF724F87B4DC4F8389079486035C9F86F
:104ED00038403030AF60C5E90008C5E903A6C5F821
:104EE00014A0C5F818A0C5F81CA0C5F820A0284635
:104EF000C5F824A0FDF7BCFD08B1FDF707F8656310
:104F0000002205212520AC63FEF71EF9252062E072
:104F1000FFE7DFF8A4814FF4807BC44560D1614B8B
:104F2000AA461B1FD3F800C04CF4802CC3F800C065
:104F30001B6803F480230593036843F004030360B4
:104F4000006800F0040005904FF440608DE82300F5
:104F5000CDE9032969465948FDF748FEDFF8549129
:104F6000574909F1C00948464FF00068C9F80010D8
:104F7000C0E90185C0E90356C9F81450C0E9065BD1
:104F80004FF4403BC9E908B5FDF772FD08B1FCF7E5
:104F9000BDFF4C4DC4F838904948C9F8384030300E
:104FA000AF60C5E90008C5E903A6C5F814A0C5F8B7
:104FB00018A0C5E907AB2846C5F824A0FDF758FDA1
:104FC00008B1FCF7A3FF6563002205212720AC632D
:104FD000FEF7BAF82720FEF7A9F807B0BDE8F08F72
:104FE000DFF8E480C445F8D1D3F800C04CF0200CC1
:104FF000C3F800C01B6803F020030593036843F067
:1050000040030360006800F0400005904FF48440C6
:105010008DE823000820CDE9032069462B48FDF7E1
:10502000E5FDDFF8A090224909F1600960394846A2
:105030004FF0206AC9F80010C0E901A5C0E9035685
:10504000C9F81450C0E9065BC9F82050B046C9F849
:105050002450FDF70DFD08B1FCF758FF194EC4F8B8
:105060003890C036C9F83840C6E90275C6E90485EB
:10507000B5610F48F561356218307562C6E9000AFE
:105080003046FDF7F5FC08B1FCF740FF66630022EF
:1050900005214720B463FEF757F847209BE700003F
:1050A0000010014044380240000402400000024069
:1050B00088640240B4080020004800400008024014
:1050C00028600240D409002000140140001802406A
:1050D00090F83E30202B0ED159B152B190F83C30AF
:1050E000012B08D0012380F83C300023036301F03A
:1050F000ABBD012070470220704770472DE9F8438F
:10510000044690F83D001F4616460D4620284CD117
:10511000C5B1BEB194F83C00012846D0012084F806
:105120003C004FF00008C4F84080212084F83D0086
:10513000FDF75EFEA6848146E684A068B0F5805F38
:1051400003D004E00120BDE8F883206928B12E4691
:105150005FF0000584F83C800EE00026FAE780212D
:10516000204601F08EFDA0B9AEB116F8010B216802
:105170004860E08C401EE084E08C4B464FF000021B
:1051800000970028EBD14FF04001204601F079FD57
:1051900030B10320D7E735F8020BC0F30800E6E78B
:1051A000202084F83D000020CDE70220CBE77047A7
:1051B000FEE700002DE9F04100262DED048B44F6BA
:1051C000206743E0254AA2F11005291D101DFCF7B8
:1051D000CBF86869FBF737FC9FED218B53EC182B5C
:1051E000FBF713FB05F1780441EC190B2068FBF782
:1051F0002AFC53EC192BFBF702FBFBF767FC206042
:10520000A869FBF720FC53EC182BFBF7FEFA41ECE6
:10521000190B6068FBF717FC53EC192BFBF7EFFA3F
:10522000FBF754FC6060E869FBF70DFC53EC182BAE
:10523000FBF7EBFA41EC180BA068FBF704FC53EC0E
:10524000182BFBF7DCFAFBF741FCA0603046761C1C
:10525000B842B7DBBDEC048BBDE8F08140540020C0
:105260002D431CEBE2360A3F08B5072000E064201E
:1052700007F004F9FCF760F80028F8D1714A0092B1
:10528000A2F11009101D09F104018346FCF76CF826
:10529000FFF790FF4A46A2F14001A1F10C0006F091
:1052A00035FFDFED690A9FED690A694A002109F1BE
:1052B000300000F0F7FFA9F13402A2F10C0101F176
:1052C0001800FBF791FFA9F14007A7F1180597ED2A
:1052D000000AA5F10C0685ED000AA5F1180886ED77
:1052E000000A88ED000A97ED010A002085ED010A09
:1052F00086ED010A88ED010A97ED020A85ED020AA2
:1053000086ED020A88ED020A07F012F908F0E6F9C4
:10531000504C102160625048C161FEF7C9FF08B1CE
:10532000FCF7F4FD4B4908223431A1F1080001F0EB
:1053300083F80120E0704FF0FF3A5146012007F05A
:10534000E9FE0128F9D12078400708D5207820F01F
:10535000040020703F4859463530FBF7BDFF6078A8
:1053600040070BD5607820F004006070354A09F1E1
:1053700004011032A2F12A00FBF768FFA078400771
:105380000CD5A07820F00400A070324800992A3093
:10539000FCF7C4F899ED040A06F08EFF294A103A8A
:1053A000A2F14001A1F10C0006F0B0FE96ED000A5A
:1053B000DFED2A2A88ED000AD5ED000A9FED281AB4
:1053C000C6ED000A60EEA21ADFED260A1D4840EE87
:1053D000011A97ED000A5C3840EE201AC5ED001A5C
:1053E00096ED013A88ED013A95ED010A86ED010A44
:1053F00020EE222A97ED010A03EE012A00EE202A70
:1054000085ED012A96ED023A88ED023A95ED020A01
:1054100086ED020A60EE222A97ED020A43EE012A87
:1054200040EE202AC5ED022A90EC030A243000F059
:10543000F1FB044B203B1A1F111FA1F1100006F0D5
:10544000EBFD7AE7405400200080894500A08C45A0
:10545000F8DC000808020020880600205AF8F63F11
:105460005D896EBFD5A9183B2DE9F04786B01421A0
:105470006846FAF74FFF00254FF43040012402261A
:1054800003958DE85100DFF87CA069465046FDF792
:10549000ADFBCDE900641C4FCDE902656946384695
:1054A000FDF7A4FB4FF48058012241465046FDF71A
:1054B0009AFC4FF40059012249465046FDF793FCEF
:1054C000A6030096CDE9015469465046FDF78EFBD0
:1054D000CDE90045694638460294FDF787FB012275
:1054E00031465046FDF77FFC002241465046FDF70D
:1054F0007AFC012249465046FDF775FC06B0BDE82E
:10550000F08700000004024000140240F0B50023C0
:105510000A24302537261F4611E000BFB4EB107F68
:1055200002D905EB107C01E006EB107C01F813C0FA
:1055300001EB430C00015B1C8CF80170DBB2934261
:10554000ECD3F0BD2DE9F0470E4607460025DFF805
:105550009491BFE0785DA52872D1781904460521A1
:1055600003F0AEFB00286BD06078A17840EA0128F8
:1055700005EB08000930B04245D8204608F1090182
:1055800003F080FB00285BD06079A17940EA01201C
:1055900040F20221A0F20222884260D017DCB0F56E
:1055A000817F3FD009DC01281AD003281FD00528AD
:1055B0002AD0B0EB610022D12DE0B0F5827F38D047
:1055C000A0F5807005383CD0FC2818D140E0092AAD
:1055D00015D2DFE802F0144B525960676E75770000
:1055E0000B20804602463F48E11D813805E020201F
:1055F000804602463B48E11D7538FAF772FE05EB1E
:1056000008000930C5B265E00D20804602463548E5
:10561000E11D5538F1E70420804602463148E11D7E
:105620004838EAE70420804602462E48E11D443807
:10563000E3E70220804602462A48E11D4038DCE7C5
:1056400046E00120804602462648E11D3E38D4E768
:105650001B20804602462348E11D3D38CDE710203F
:10566000804602461F48E11D3038C6E710208046BC
:1056700002461C48E11D2038BFE701208046024653
:105680001848E11D1038B8E7012080460246154849
:10569000E11D0F38B1E70120804602461148E11DA7
:1056A0000E38AAE70720804602460E48E11D0D3855
:1056B000A3E70620804602460A48E11D801F9CE7BA
:1056C000042000E0062080460246E11D484694E79B
:1056D0006D1CEDB2B542FFF43DAFBDE8F04703F0FD
:1056E00075BA0000144A00200F4810B50D4901603A
:1056F0000321416000214FF410228160C0E90312B0
:105700004FF400124261017641768176C1760177CD
:105710004177FCF790FE002803D0BDE81040FCF76D
:10572000F5BB10BD00640040E40500200F4810B533
:105730000D4901600321416000214FF41022816076
:10574000C0E903124FF4001242610176417681767E
:10575000C17601774177FCF76EFE002803D0BDE8E3
:105760001040FCF7D3BB10BD006800400C060020C1
:10577000294808B5016841F480010160016801F41D
:1057800080010091016841F400110160006800226D
:1057900000F40010009005210C20FDF7D5FC0C2032
:1057A000FDF7C4FC002205210E20FDF7CDFC0E20E4
:1057B000FDF7BCFC002205213920FDF7C5FC39208E
:1057C000FDF7B4FC002205213A20FDF7BDFC3A208C
:1057D000FDF7ACFC002205213B20FDF7B5FC3B208A
:1057E000FDF7A4FC002205214420FDF7ADFC442078
:1057F000FDF79CFC002205214520FDF7A5FC452076
:10580000FDF794FC002205214620FDF79DFCBDE834
:1058100008404620FDF78ABC3038024010B5A4B0DD
:105820001C221C496846FAF75CFD0021684606F018
:1058300031FE194C17491C2220611C3107A8FAF7C8
:1058400050FD002107A806F025FE124920601C2209
:1058500038310EA8FAF745FD00210EA806F01AFE11
:105860000C49E0601C22543115A8FAF73AFD0021DA
:1058700015A806F00FFE0749A0601C2270311CA875
:10588000FAF72FFD00211CA806F004FE606024B08A
:1058900010BD00000CD90008000000202DE9F04FD9
:1058A00087B014216846FAF735FD59484FF0000BD0
:1058B000016841F002010160016801F002010591F7
:1058C000016841F040010160016801F0400105916B
:1058D000016841F001010160016801F001010591D9
:1058E000016841F008010160016801F008010591BB
:1058F000016841F004010160016801F004010591B3
:10590000016841F080010160016801F080010591AA
:10591000016841F02001016000683E4F00F0200066
:105920000590012240213846FDF75DFA0122DFF89B
:10593000E880960231464046FDF755FADFF8DC90E4
:10594000012210214846FDF74EFADFF8D4A00122CB
:1059500041F201015046FDF746FA01244020CDE90D
:1059600000040294694638460394FDF73FF9092084
:105970004FF48815CDE90005694602943846FDF7D5
:1059800035F9CDE90064CDE9024B69464046FDF7A3
:105990002DF91020CDE900040226CDE90246694622
:1059A0004846FDF723F93020CDE900056946029409
:1059B0001C48FDF71BF92003CDE900040294694659
:1059C00050460394FDF712F9CDE90246009469466A
:1059D00050460194FDF70AF9062100220846FDF71A
:1059E000B3FB0620FDF7A2FB002205210A20FDF7EC
:1059F000ABFB0A20FDF79AFB002205211720FDF7DB
:105A0000A3FB1720FDF792FB07B0BDE8F08F000065
:105A10003038024000180240001C024000000240E2
:105A200000040240000802400D4810B50B49016017
:105A30000C49416000214FF480428160C0E90312AB
:105A400041618161C1610162FDF7D8F9002803D08D
:105A5000BDE81040FCF75ABA10BD0000005C0040E1
:105A600034060020801A0600104810B50E49016067
:105A70004FF482714160002102228160C0E903126B
:105A800001224261520282611022C0E90721416273
:105A900081620A21C162FEF70BFC002803D0BDE839
:105AA0001040FCF733BA10BD0030014088060020DA
:105AB00010B588B01C216846FAF72CFC144813492D
:105AC0000024C0E900144FF6FF71C0E902410461EF
:105AD0008461FEF7C4FD08B1FCF718FA0C48FEF724
