:020000040800F2
:1000000090AD0020290300083F4D0008B1420008D0
:100010003D4D00085D090008057B00080000000058
:10002000000000000000000000000000690200085D
:10003000A10F000800000000C50200089D5500083F
:100040004303000843030008430300084303000878
:100050004303000843030008B30F000843030008EC
:100060004303000843030008B90F000843030008D6
:10007000FD0B000843030008090C000843030008B7
:10008000430300084303000843030008B5090008C0
:100090009D090008A909000843030008BF0F0008D4
:1000A0004303000843030008430300084303000818
:1000B000430300086D56000843030008430300088B
:1000C000430300084303000843030008ED530008FE
:1000D00043030008A15C000843030008B95C000862
:1000E00043030008430300084303000843030008D8
:1000F00043030008430300084303000843030008C8
:1001000043030008430300084303000843030008B7
:1001100043030008430300084303000843030008A7
:1001200043030008150C0008210C0008350C0008DA
:10013000430300084303000843030008090A0008BA
:10014000FD0900084303000843030008C54E0008EA
:10015000410C00084D0C0008590C0008995E00087D
:100160004303000843030008430300084303000857
:100170004303000843030008430300080000000095
:10018000430300084303000800F002F800F05CF8A5
:100190000AA090E8000C82448344AAF10107DA45E2
:1001A00001D100F051F8AFF2090EBAE80F0013F0D8
:1001B000010F18BFFB1A43F0010318479CCE000043
:1001C000BCCE00000A444FF0000C10F8013B13F0C5
:1001D000070408BF10F8014B1D1108BF10F8015BA0
:1001E000641E05D010F8016B641E01F8016BF9D193
:1001F00013F0080F1EBF10F8014BAD1C0C1B09D1EA
:100200006D1E58BF01F801CBFAD505E014F8016B5B
:1002100001F8016B6D1EF9D59142D6D370470000ED
:100220000023002400250026103A28BF78C1FBD8FF
:10023000520728BF30C148BF0B6070471FB50CF094
:10024000E4FC1FBD10B510BD00F094F91146FFF796
:10025000F5FF0AF08BFD00F0B2F903B4FFF7F2FFEF
:1002600003BC00F0B5F900002C4B19680868B0E831
:10027000F04F80F30988BFF36F8F4FF0000080F3D9
:10028000118870470000000008480068006880F38B
:1002900008884FF0000080F3148862B661B6BFF39F
:1002A0004F8FBFF36F8F00DF00BF00BF08ED00E08E
:1002B000DFF80C00016841F470010160704700BF75
:1002C00088ED00E0EFF30980BFF36F8F134B1A68DE
:1002D0001EF0100F08BF20ED108A20E9F04F1060CB
:1002E00009B44FF0500080F31188BFF34F8FBFF374
:1002F0006F8F0BF023FC4FF0000080F3118809BCD6
:1003000019680868B0E8F04F1EF0100F08BFB0EC95
:10031000108A80F30988BFF36F8F70472400002094
:10032000EFF30580704700000948804709480047FF
:10033000FEE7FEE7FEE7FEE7FEE7FEE7FEE7FEE795
:10034000FEE7FEE704480549054A064B70470000F2
:100350005D56000889010008906D002090AD0020D6
:10036000908D0020908D002053EA020C00F06980EF
:100370002DE9F04B4FF00006002B1FBFB3FA83F5B9
:1003800003FA05F424FA05F65E4012BF1643B2FAEA
:1003900082F502FA05F4C5F120051EBF22FA05FC1C
:1003A00044EA0C04203556EA044C4FEA144418BFC2
:1003B000641C4FF000084FF00009904271EB030CF1
:1003C00039D3002919BFB1FA81F701FA07F6B0FA5B
:1003D00080F700FA07F6C7F120071EBF20FA07FCD6
:1003E00046EA0C062037B6FBF4FCA7EB0507103FE6
:1003F00007F01F0BCBF120060CFA0BFB2CFA06F6CC
:1004000044BFB3460026202FA4BF5E464FF0000B2A
:100410005BEA060C08BF4FF0010B19EB0B09ABFBB5
:10042000027C48EB0608C01B06FB02CC0BFB03CC8E
:1004300071EB0C01C1E70B46024641464846BDE858
:10044000F08B13B54FF000004FF00001AFF30080C8
:10045000BDE81C40704710B5431C02E010F8011BBA
:1004600071B18107FAD14FF0013202C88C1A8C4366
:1004700014EAC211F9D0C01A0A0603D0C01E10BD7A
:10048000C01A10BD0A0401D0801E10BD0902FCD0A4
:10049000401E10BD10B5203AC0F00B80B1E81850D6
:1004A000203AA0E81850B1E81850A0E81850BFF45E
:1004B000F5AF5FEA027C24BFB1E81850A0E81850FD
:1004C00044BF18C918C0BDE810405FEA827C24BF51
:1004D00051F8043B40F8043B08BF7047D20728BFDF
:1004E00031F8023B48BF11F8012B28BF20F8023B2E
:1004F00048BF00F8012B70474FF0000200B51346CB
:1005000094469646203922BFA0E80C50A0E80C5033
:10051000B1F12001BFF4F7AF090728BFA0E80C50E4
:1005200048BF0CC05DF804EB890028BF40F8042BDD
:1005300008BF704748BF20F8022B11F0804F18BF4A
:1005400000F8012B704770477047704710B500F0F6
:1005500009F8006810BD10B5044600F003F8046007
:1005600010BD000000487047306D00200048704703
:10057000306D00207546FFF7F9FFAE46050069466D
:10058000534620F00700854618B020B5FFF7DAFE85
:10059000BDE820404FF000064FF000074FF0000884
:1005A0004FF0000B21F00701AC46ACE8C009ACE805
:1005B000C009ACE8C009ACE8C0098D46704710B569
:1005C0000446AFF300802046BDE81040FFF745BE6B
:1005D00001491820ABBEFEE726000200704700006C
:1005E000B7EE000A80ED000A9FED040A80ED010AD3
:1005F00080ED020A80ED030A704700000000000051
:1006000001221021014801F05ABC00000000024004
:1006100000221021014801F052BC000000000240FD
:100620007047000001221146014801F048BC00005B
:100630000004024000220121014801F040BC0000FA
:100640000004024030B5437804781B021BB22343F8
:1006500000EE103A1B4CB8EEC00AD4ED010A20EEB1
:10066000200A81ED000AC37885781B021BB22B4358
:1006700000EE103AD4ED010AB8EEC00A20EE200ACE
:1006800081ED010A437904791B021BB2234300EE7A
:10069000103AB8EEC00A20EE200ADFED0B0A81ED19
:1006A000020A017AC3790904807941EA03210143EE
:1006B00000EE101AB8EE400A20EE200A82ED000A81
:1006C00030BD00004801002000401C4270470AF085
:1006D000D7BB0AF055B9000010B542780378120272
:1006E00012B21A4300EE102A124BB8EEC00AD3ED34
:1006F000020A20EE200A81ED000AC27884781202F4
:1007000012B2224300EE102AD3ED020AB8EEC00A5C
:1007100020EE200A81ED010A42790079120212B21C
:10072000024300EE102AB8EEC00A20EE200A81ED46
:10073000020A10BD4801002010B5FFF771FFFFF756
:10074000C5FF09F0CFF908B1802402E009F036F9BD
:10075000044609F09FFB10B144F0400010BD09F0C1
:100760002BFB204310BD00002DE9FC410746002073
:1007700016460D4600900190FFF74AFF922000F0C8
:10078000BDF806226946122000F09AF8FFF738FFFC
:100790009DF801009DF80010000200B2084300EE31
:1007A000100A464CB8EEC00AD4ED010A20EE200A29
:1007B00085ED000A9DF803009DF80210000200B2CA
:1007C000084300EE100AD4ED010AB8EEC00A20EE8C
:1007D000200A85ED010A9DF805009DF8041000022D
:1007E00000B2084300EE100AB8EEC00A20EE200A5C
:1007F00085ED020AFFF71EFF08226946002000F07F
:100800005FF8FFF70FFF9DF800000F2830D19DF82B
:1008100003009DF80210000200B2084300EE100A27
:10082000D4ED020AB8EEC00A20EE200A87ED000AD5
:100830009DF805009DF80410000200B2084300EE88
:10084000100AD4ED020AB8EEC00A20EE200A87EDA5
:10085000010A9DF807009DF80610000200B2084347
:1008600000EE100AB8EEC00A20EE200A87ED020A58
:10087000FFF7CEFEA22000F041F8022269462220B6
:1008800000F01EF8FFF7BCFE9DF800009DF8011077
:10089000C00040EA5110B0F5806F01DBA0F50060A8
:1008A00000EE100AB4EE001AF8EEC00AB3EE070A22
:1008B00000EE810A86ED000ABDE8FC8148010020B7
:1008C00070B514460D4640F0800000F017F806E0C1
:1008D000552000F013F8641E05F8010BE4B2002C5B
:1008E000F6D170BD10B50C4640F0800000F006F85F
:1008F000552000F003F8207010BD000001B582B053
:100900004FF47A700090012301AA02A9024802F074
:100910001FFE9DF804000EBD7C0600200278407882
:10092000D20042EA5010B0F5806F01DBA0F5006004
:1009300000EE100AB4EE001AF8EEC00AB3EE070A91
:1009400000EE810A81ED000A704710B50C46FFF7F2
:10095000D5FF2046BDE81040FFF7D0BFFEE70000FE
:1009600000B58BB000200121CDE906010590009073
:1009700001900290039004900E20CDE90810694682
:10098000054800F0A1FB0221034800F01DFB0248CE
:1009900000F044FF0BB000BDD8050020014800F076
:1009A0008EBC0000D8050020014800F088BC000083
:1009B000D8050020014800F082BC0000D8050020C6
:1009C00000B58BB001220E2100200792CDE9051061
:1009D00003900490CDE908210090019002906946AF
:1009E000054800F071FB0221034800F0EDFA0248CF
:1009F00000F014FF0BB000BD00060020014800F01D
:100A00005EBC000000060020014800F058BC000059
:100A100000060020002070470020704710B500221B
:100A20000449054805F01EFC0449034805F00DFC87
:100A3000002010BD045E0020285100200456002034
:100A400010B50446088881B2204600F017F808481F
:100A50002168016061684160218901812146054862
:100A600005F0F3FB034805F0C9FB002010BD0000B2
:100A7000CC4800202851002000207047094A10B5BA
:100A8000D2F8BC22D2F814220AB1012010BD0A46C5
:100A90000146044805F0E6FBBDE81040014805F0BA
:100AA0005BBC0000285100202DED0A8B00252C4650
:100AB0003148324F00F10C01D0ED00BA90ED01BA8F
:100AC000D0ED02AA90ED06CA90ED078AD0ED088A13
:100AD000A7F5A07991EC039AA7F1A00804EB84068E
:100AE00007EBC600B0EE6A1AF0EE4B0AB0EE6B0AE6
:100AF0000AF0B1FAB0EE4A1AF0EE690AB0EE490A0D
:100B000009EBC6000AF0A7FAB0EE681AF0EE480A40
:100B1000B0EE4C0A08EBC6000AF09DFA641C042CE7
:100B2000DCDB174901F5F67005F08FFB154E164C0E
:100B300040F6AF6740F2BB6840F22E4940F2BE6A11
:100B4000B07A01280ED12780A4F80280A4F804907E
:100B5000A4F806A06D1C06F0D7FF09F061FA0A2080
:100B60000AF08EF906F0D0FF09F05AFA0A200AF0CE
:100B700087F9002DF6D1E3E7A0CD0008184A002040
:100B8000CC480020204800202C01002088B003F031
:100B9000EBFC04F0D5F8184C08B10120E06004F03B
:100BA00011FB022520216846FFF7A6FC684604F0E9
:100BB0002BF900B9E5609DF800005A2818D19DF87E
:100BC0000E006A2814D1DDF80100A060DDF80500F0
:100BD00020619DF80900A0709DF80A00E0709DF862
:100BE0000B0020709DF80C0020719DF80D006070C6
:100BF00001200AF045F9D5E734010020014800F052
:100C00009BBE000068090020014800F095BE00006E
:100C1000C8090020014800F08FBE0000280A00200B
:100C200010B506F01DFFBDE81040014800F084BE7D
:100C300034070020014800F07FBE0000D4060020E9
:100C4000014800F079BE0000A8080020014800F02B
:100C500073BE0000880A0020014800F06DBE00004D
:100C6000080900202DE9F04F85680024099E802D99
:100C700018D0894DC563894D456490F83450012DD5
:100C800015D0012580F8345090F83550012D10D042
:100C9000002180F834100224002180F8341020460E
:100CA000BDE8F08F4FF4807141650120F8E7022024
:100CB000F6E7022580F835500025456505682F6860
:100CC00047F480272F6005682B6103685E608368A6
:100CD000402B03682AD099600168CA60714D704E3C
:100CE000704FDFF8BC81DFF8B891DFF8B8A1DFF80A
:100CF000B4B1EA14DFF8A8E101681836303793027E
:100D0000A9F148090AF1600A0BF1180BAEF1300E97
:100D10004FF0006C41452DD9A94205D0494503D07B
:100D2000514501D0B14205D1202220E09A600268ED
:100D3000D160D3E759451AD0714518D0594D78354F
:100D4000A94214D0564D3035A94210D0B9420BD02B
:100D5000534A183A914207D0524A9032914203D0F6
:100D60004F4A4832914201D11A4600E062464C494E
:100D70004C392EE0DFF82C8108F1A80841452AD92A
:100D8000A94205D0494503D0514501D0B14201D116
:100D900020221CE059451AD0714518D0414D7835B4
:100DA000A94214D03E4D3035A94210D0B9420BD0E3
:100DB0003B4A183A914207D03A4A9032914203D0C6
:100DC000374A4832914201D11A4600E0624634491E
:100DD00050390A605AE0DFF8CC8008F148084145F4
:100DE0002AD9A94205D0494503D0514501D0B14285
:100DF00001D120221CE059451AD0714518D0294D47
:100E00007835A94214D0264D3035A94210D0B942C8
:100E10000BD0234A183A914207D0224A903291428D
:100E200003D01F4A4832914201D11A4600E062467F
:100E30001C491039CA6029E0A94205D0494503D0B0
:100E4000514501D0B14201D120221CE059451AD0B0
:100E5000714518D0134D7835A94214D0104D303556
:100E6000A94210D0B9420BD00D4A183A914207D08E
:100E70000C4A9032914203D0094A4832914201D142
:100E80001A4600E06246074910398A6001680A681C
:100E900042F001020A60FFE6B5A90008D9A90008DE
:100EA000586402401060024001681823CAB2103A28
:100EB000B2FBF3F2054B6FF30901032A9B5CC36598
:100EC00000D9091D816508467047000080CD0008E3
:100ED00010B5014600208B698A6A4FF0C07453B187
:100EE000B3F5005F15D072B1012A0CD0022A0AD0E6
:100EF000032A09D104E01AB1012A06D0022A03D13B
:100F0000C96AC90100D5012010BDC96AA142FAD041
:100F100010BD002AF7D0012AF2D0022AF3D0032A0A
:100F2000F3D010BD30B50468256825F48025256010
:100F3000046863608368402B036803D0996000688D
:100F4000C26030BD9A600068C16030BD094A016866
:100F500082B091420BD1084909680A68D243D2068F
:100F600005D40A684968009102B003F06BB902B079
:100F70007047000000100140DC07002010B5016838
:100F80000A68D20608D5C968C90605D50AF0CAFBA1
:100F900002480168491C016010BD0000F0000020FB
:100FA000704701B5009801E0401E00900028FBD179
:100FB00008BD012000F07ABE102000F077BE20208E
:100FC00000F074BE72B6FEE790F82020012A07D028
:100FD000022A05D0416A41F4802141620120704714
:100FE000006842690A43426100207047F0B590F8FA
:100FF00020500468A468012D05D0022D03D0416A59
:1010000041F480215DE014F0406F01D1E50055D539
:10101000C4F30164022C03D9416A41F4000150E099
:101020000125A5401D608D684FF4C0739DB1CE6849
:1010300035434E6845EAC605066803EB0417F551CB
:101040004FF4C275076805EB04150E697E51097DE2
:10105000012905D009E00E88CD6845EA4655EBE741
:1010600001684E5946F480764E511179D5795679FA
:1010700041EA056195792D0445EA062529434FF497
:10108000C676056806EB0416A9511178D57841EAB1
:101090000561957852782D0445EA022211434FF4F8
:1010A000C475026805EB04155151006803EB041187
:1010B000425842F0010242500020F0BD416A41F422
:1010C000001141620120F0BD10B590F82020012AE6
:1010D00007D0022A05D0416A41F4802141620120F3
:1010E00010BD3B48D0F8002242F00102C0F80022B7
:1010F000D0F8002222F47C52C0F80022D0F800225E
:101100004B6A42EA0322C0F800220A7D02F01F0364
:1011100001229A40D0F81C329343C0F81C32CB69AC
:10112000B3B9D0F80C329343C0F80C328C894B68B9
:1011300064F31F434C6900EBC404C4F840320C89CB
:101140000B6864F31F434C6900EBC404C4F84432D9
:10115000CB69012B16D1D0F80C321343C0F80C32F6
:101160000C884B6864F31F434C6900EBC404C4F85B
:1011700040320C89CB6864F31F434C6900EBC40414
:10118000C4F844328B69002BD0F804320ED01343DC
:10119000C0F804320B69002BD0F8143208D0134386
:1011A000C0F81432096A012904D008E09343EFE73C
:1011B0009343F5E7D0F81C121143C0F81C12D0F885
:1011C000001221F00101C0F80012002010BD000043
:1011D00000640040704730B590F82040012C05D0E5
:1011E000022C03D0416A41F480215DE004680029AB
:1011F00055D02469A40754D04FF4D874056804EB83
:1012000001142D5915F00405956005682D594ED02F
:10121000ED08556005682C5904F00204D4604FF4C1
:10122000DA74056804EB01142D5905F00F051561FA
:1012300005682D59C5F30725956105682C59240CBF
:1012400054614FF4DC72046802EB0112A4581C7064
:101250000468A458240A5C700468A458240C9C7088
:101260000468A258120EDA704FF4DE72046802EBC2
:101270000112A4581C710468A458240A5C71046803
:10128000A458240C9C710468A258120EDA710068EC
:1012900081B1016941F020010161002030BDE468A5
:1012A000A8E7416A41F400114162012030BD6D0D93
:1012B0001560AFE7C16841F02001C160EDE72DE99D
:1012C000F05F0546006800244669D0F804908768FE
:1012D000D0F80CB0D0F810A0D0F81880F10748D0A2
:1012E000F90714D001218160B80703D5284600F022
:1012F000C2FA0CE0780702D54FF4006407E0380723
:1013000002D54FF4805402E0284600F0B3FAF80505
:1013100016D529684FF480708860B80503D5284633
:1013200000F0ABFA0CE0780502D544F4005407E075
:10133000380502D544F4804402E0284600F09CFAC7
:10134000F80316D529684FF480308860B80303D5B8
:10135000284600F094FA0CE0780302D544F40044E7
:1013600007E0380302D544F4803402E0284600F058
:1013700085FA300707D55FEACB6004D529681020CD
:1013800044F40074C86070074FF0080707D55FEA9F
:101390000B7004D52868C760284600F0B1F9B00783
:1013A00006D52868C068800702D0284600F0AAF950
:1013B000700607D55FEACA6004D52968102044F496
:1013C00080640861B00607D55FEA0A7004D5286812
:1013D0000761284600F01EFAF00606D52868006965
:1013E000800702D0284600F016FAB00308D55FEA5D
:1013F000C96005D5296810204860284600F00CFA1D
:10140000F00307D55FEA097004D5286847602846CD
:1014100000F036FA300446D55FEA497040D5F00551
:1014200004D55FEAC87001D044F00104B00504D5CA
:101430005FEA887001D544F00204700504D55FEAC4
:10144000487001D544F00404300529D518F0700F18
:1014500026D008F07000402815D006DC102809D0EE
:1014600020280AD0302816D10AE050280ED0602853
:1014700011D10EE044F008040DE044F010040AE03D
:1014800044F0200407E044F0400404E044F0800409
:1014900001E044F480742868816921F07001816161
:1014A000296804204860002C05D0686A20436862DF
:1014B0002846FFF78FFEBDE8F09F70B5040003D00B
:1014C00094F8200010B104E0012070BD204600F027
:1014D00081F82068016841F00101016000F0F4FC2E
:1014E0000546052604E000F0EFFC401B0A2811D851
:1014F00020684068C007F6D02068016821F002012A
:10150000016000F0E1FC05460BE000F0DDFC401B53
:101510000A2806D9606A40F40030606284F82060CE
:10152000D2E7206840688007EFD4207E0128206839
:1015300001683DD021F080010160607E01282068B3
:10154000016838D021F040010160A07E01282068A8
:10155000016833D021F020010160E07E012820687D
:1015600001682ED041F010010160207F0128206821
:10157000016829D021F008010160607F01282068FE
:10158000016824D021F004010160D4E9020108437C
:10159000D4E90412114308436168491E08432168D5
:1015A000C86100206062012084F82000002070BD26
:1015B00041F08001C0E741F04001C5E741F0200162
:1015C000CAE721F01001CFE741F00801D4E741F06C
:1015D0000401D9E7F0B587B0044614216846FEF748
:1015E0008BFF424B4248DFF800E11968D4F800C095
:1015F0003F4A03250226092710300024491CF445E0
:1016000032D11960012907D1016841F000710160F0
:10161000006800F000700590106840F0080010604D
:101620001068CDE9005600F00800CDE90470694665
:101630003048CDE9024500F045FB0022052113208A
:1016400000F0EEFD132000F0DDFD00220521142046
:1016500000F0E6FD142000F0D5FD00220521152044
:1016600000F0DEFD15203AE0DFF88CE0F44538D1DB
:10167000D0F800C04CF0806CC0F800C0D0F800C0BA
:1016800001290CF0806CCDF814C0196007D10168F5
:1016900041F000710160006800F000700590106872
:1016A00040F002001060106802AB00F002000590EC
:1016B0006020CDE9000683E8B00069460F4800F0DD
:1016C00001FB002205213F2000F0AAFD3F2000F091
:1016D00099FD00220521402000F0A2FD402000F0ED
:1016E00091FD07B0F0BD0000006400401000002034
:1016F00030380240000C0240006800400004024004
:1017000070470000F0B5064600683D493D4D3E4C2F
:101710008DB0884246D102AB04AA00213046FFF7C3
:101720005AFD0499A1F58060043801D102986860DF
:10173000552906D19DF80800082802D1BDF80900F6
:101740002860A1F20920082815D2BDF80820C0B2EF
:1017500057BA2E4AC0EBC00302EB83008781BDF865
:101760000A707FBA22F82370BDF80C2052BA428367
:101770009DF80E200283A1F20121072912D8C8B2D8
:10178000BDF8081049BA24F83010BDF80A1004EB6F
:10179000C00049BA4180BDF80C1049BA81809DF85B
:1017A0000E10C1801A493068884227D16B4602AAC0
:1017B00000213046FFF70FFD02980246A0F20120FB
:1017C000072812D8C1B2BDF8000040BA24F8310091
:1017D000BDF8020043BA04EBC1004380BDF8041019
:1017E00049BA81809DF80610C180552A06D19DF81E
:1017F0000000082802D1BDF8010028600DB0F0BD3E
:1018000000640040E00000205C480020704F002091
:1018100000680040704770477047000070B504468C
:1018200090F82000012804D0606A40F40020606233
:1018300018E0022084F820002068016821F00101EE
:10184000016000F041FB05460EE000BF00F03CFBEC
:10185000401B0A2808D9606A40F400306062052005
:1018600084F82000012070BD20684068C007EDD1D9
:10187000606270BD7047704770477047704770472F
:1018800070472DE9F0410446876D00F01DFB0646C8
:1018900094F835000025022806D08020606584F881
:1018A00034500120BDE8F0812068016821F0160164
:1018B00001602068416921F080014161206C08B914
:1018C000A06C20B12068016821F008010160206847
:1018D000016821F0010101600CE000F0F5FA801BC5
:1018E000052807D920206065032084F8350084F896
:1018F0003450D7E720680068C007EED194F85C1038
:101900003F208840B860012084F8350084F83450C6
:101910000020C7E790F83510022903D080214165E7
:1019200001207047052180F835100068016821F01A
:1019300001010160002070472DE9F84304464FF093
:101940000009CDF8009063484FF41651A56D00686A
:10195000B0FBF1F72E6894F85C10082000FA01F152
:1019600031420FD021680A6852070BD50A6822F06D
:1019700004020A6094F85C108840A860606D40F032
:101980000100606594F85C104FF0010808FA01F05E
:10199000304208D021684969090604D5A860606D05
:1019A00040F00200606594F85C10042088403042EA
:1019B00008D021680968890704D5A860606D40F0E7
:1019C0000400606594F85C1010208840304218D004
:1019D00021680968090714D5A860206801684903CF
:1019E00004D50068000308D5A16C07E00168C905AB
:1019F00003D4016821F008010160216C09B120467F
:101A0000884794F85C1020208840304231D021680B
:101A10000968C9062DD5A86094F835000528206806
:101A2000016806D0490347D5006800031DD4616CE6
:101A30001CE021F0160101602068416921F080015D
:101A40004161206C08B9A06C20B12068016821F0C8
:101A50000801016094F85C103F208840A86084F879
:101A6000358084F83490216D1FE0E16B09B1204688
:101A70008847606D00282BD0606DC00714D005200A
:101A800084F835002068016821F0010101600098A8
:101A9000401C0090B84203D820680068C007F6D107
:101AA00084F8358084F83490E16C002910D001B0BE
:101AB0002046BDE8F04308470168C905D5D4016850
:101AC00021F01001016084F8358084F83490CCE76F
:101AD000BDE8F883200000202DE9F041044600F025
:101AE000F3F906465CB1022084F83500002584F83D
:101AF00034502068016821F0010101600DE00120EF
:101B0000BDE8F08100F0E0F9801B052805D9202010
:101B10006065032084F83500F2E720680068C0079C
:101B2000F0D12268116820480140D4E9010318432C
:101B3000D4E903363343184363691843A369184350
:101B4000E3691843236A18430843616A042903D1EF
:101B5000D4E90B1319430843106020684069666A92
:101B600020F0070130460E43012704280CD1A06A5B
:101B70000643E06A40B12046FFF7AAF920B14020B1
:101B8000606584F83570BAE7206846612046FFF743
:101B90008BF994F85C203F2191408160656584F861
:101BA00035700020ACE700003F8010F02DE9F041D7
:101BB0000446866D90F83400002501280DD00120E0
:101BC00084F8340094F835700020012F07D084F891
:101BD000340002252846BDE8F0810220FBE70227F9
:101BE00084F8357060652046FFF79CF994F85C1026
:101BF0003F208840B0602068016841F01601016014
:101C0000206C20B12068016841F008010160206863
:101C1000016841F001010160DCE7000070B5044695
:101C200000F052F90546601C02D0044800780444D4
:101C300000F04AF9401BA042FAD370BD1400002006
:101C400010B5184C102818D020281FD0012813D107
:101C50000AF0B6F801280FD004F12001606A09F0FB
:101C6000D5FE206A002807D00F494FF08050086049
:101C7000BFF34F8FBFF36F8F10BD607840F001004E
:101C80006070A07840F00100A07003E0207840F080
:101C900001002070E0780028EED0BDE8104008F088
:101CA00085BF00008001002004ED00E0044910B56C
:101CB0000A68024202D00860FFF7C2FF10BD0000B0
:101CC000143C01402DE9F84FDFF8BCA100220125AA
:101CD00003264FF00F090AF1040BAAF1040E00BF0E
:101CE0000B6805FA02F42340A34270D10F7907F084
:101CF0000307012F01D0022F16D187684FEA42084F
:101D000006FA08FC27EA0C07D1F80CC00CFA08FC0C
:101D10004CEA070CC0F808C04768A7430C79C4F325
:101D2000001494403C4344600C79E443A4070AD077
:101D3000C4684FEA420C06FA0CF7BC438F6807FAF6
:101D40000CF72743C7600C7904F00304022C12D16E
:101D5000D40800EB840CDCF820405707FF0E09FA8A
:101D600007F824EA0804D1F8108008FA07F848EACE
:101D70000408CCF8208004684FEA420C06FA0CF7FD
:101D8000BC430F7907F0030707FA0CF727430760F6
:101D90004C6814F4403F70D03C4C276847F48047AF
:101DA0002760246822F0030704F480440094384C30
:101DB00007EB040CDCF8084897074FEA177809FA94
:101DC00008F7BC43334FB84202D1002724E054E067
:101DD000314FB84201D101271EE0304FB84201D146
:101DE000022719E02E4FB84201D1032714E02D4FEE
:101DF000B84201D104270FE02B4FB84201D105278B
:101E00000AE02A4FB84201D1062705E0284FB84220
:101E100001D1072700E0082707FA08F72743CCF885
:101E20000878DAF800405746D1F804C09C435FEACE
:101E3000CC2C00D51C433C60DBF800405F46D1F859
:101E400004C09C435FEA8C2C00D51C433C60DEF848
:101E500000407746D1F804C09C435FEA8C3C00D533
:101E60001C433C60084F083F3C68D1F804C09C43C9
:101E70005FEACC3C00D51C433C60521C102AFFF4A6
:101E80002FAFBDE8F88F0000083C01404438024005
:101E900000300140000002400004024000080240FF
:101EA000000C0240001002400014024000180240E2
:101EB000001C02400069084000D0012070470AB1B0
:101EC000816170470904FBE70148806870470000A2
:101ED0001400002070B5040025D094F83D000025C2
:101EE00020B984F83C50204600F0B8F8242084F84B
:101EF0003D002068016821F001010160206801684F
:101F000041F4004101602068016821F40041016052
:101F100000F0B2FF4D4A6168914201D84C4900E09F
:101F20004C49884201D2012070BD4B492368B0FB67
:101F3000F1F15E6826F03F060E435E6063689342EF
:101F400006D94FF4967359434FF47A73B1FBF3F10A
:101F50002368491C1E6A26F03F06314319626168F6
:101F6000914210D84900401EB0FBF1F2521CC2F35E
:101F70000B02042A01D2042022E0B0FBF1F0401C45
:101F8000C0F30B001CE0A268F2B301EBC10303EB4A
:101F90000116431EB3FBF6F35B1C43F480431B05A1
:101FA00049D092B301EBC10202EB0111401EB0FB1C
:101FB000F1F0401CC0F30B0040F4804040F40040BE
:101FC0002168CA694CF6FF739A431043C861D4E98B
:101FD000071001432068026822F0C002114301602B
:101FE000D4E9030101432068826848F2FF339A4331
:101FF00011438160D4E9050108432168CA6822F0D1
:10200000FF021043C86001E00EE016E0206801689E
:1020100041F0010101602564202084F83D00256322
:1020200084F83E50002070BD01EB4106431EB3FB17
:10203000F6F35B1CB3E70120C2E701EB4101401E50
:10204000B0FBF1F0401CC0F30B00B7E7A086010025
:1020500080841E0000093D0040420F00F0B587B0AB
:10206000044614216846FEF747FA1D492068884255
:1020700033D11C480024016841F00401016001686B
:1020800001F004010591016841F00101016000685F
:10209000122500F0010005904FF40070CDE9000515
:1020A00002AA0326042782E8D00069460E48FFF7FB
:1020B00009FEB801CDE9000502AA694682E8D00010
:1020C0000A48FFF7FFFD07481030016841F400019E
:1020D0000160006800F40000059007B0F0BD00004A
:1020E000005C00403038024000080240000002401E
:1020F0000248816802781144816070471400002012
:102100000B4810B5016841F400710160016841F4A9
:1021100080610160016841F480710160032000F07A
:102120009FF80F2000F006F800F050F8002010BDD6
:10213000003C024030B505461F4887B000240168C6
:1021400041F002010160006806A900F00200009061
:1021500001A800F06BFE0498A8B100F08DFE4000CD
:102160001649174AB0FBF1F11648491E026040F2C9
:10217000E732C0E90324C0E90114846101F0DBFA0D
:10218000040003D015E000F077FEE9E70D4801F008
:1021900013FB04000DD11D2000F034F8102D07D2E0
:1021A000002229461D2000F03BF80748056000E0AA
:1021B000012407B0204630BD4038024040420F00A5
:1021C00000040040E80A0020180000200C4882B0FB
:1021D000016841F480410160006800F48040009093
:1021E0000748001F016841F080510160006800222B
:1021F00000F0805000900F21901E02B000F010B847
:1022000044380240002809DB00F01F020121914000
:102210004009800000F1E020C0F800117047000084
:10222000F0B40E4B1B680C46C3F30223C3F1070541
:10223000042D00D90425191D072901D2002300E02F
:10224000DB1E012606FA05F1491E214099409E40F9
:10225000761E16403143F0BC05F0BBBC0CED00E02F
:10226000064900F0070208684FF6FF03184040EAED
:102270000220034A10430860704700000CED00E0A4
:102280000000FA0570470068416200207047F0B511
:102290000368586A39B19C6A4FF4827600EB1444A3
:1022A00000204D1E0AE040EA024098620FE006EB73
:1022B0008007DF59401C04EB1744C0B2A842F6D394
:1022C00044EA02404FF4807202EB81015850002032
:1022D000F0BDD0F8080504F0C5BA01EBC10200EB6F
:1022E0008202D0F80805D26C04F01ABA01EBC102E0
:1022F00000EB8202D0F80805D2F88C2204F06BBA09
:10230000D0F8080504F0B0BA0A0601F00F0101EB9D
:10231000C10100EB810101D53C3101E001F51F71E4
:10232000006805F0E5B970B504460B0601F00F0032
:1023300000EBC00104EB81014FF001024FF00005FA
:1023400003D581F83D203C3103E081F87D5201F551
:102350001F71087094F8BC04012808D084F8BC24CC
:10236000206804F07FFE84F8BC54002070BD022079
:1023700070BD70B5044601F00F006268904201D94B
:10238000012070BD0B0601F00F0101EBC10104EB50
:1023900081014FF001024FF0000503D581F83D2087
:1023A0003C3103E081F87D5201F51F718D7008709A
:1023B00094F8BC04012808D084F8BC24206805F0F7
:1023C0004DF884F8BC54002070BD022070BD01F0AF
:1023D0000F0101EBC10100EB8100D0F89C027047B6
:1023E0002DE9F04104460F0601F00F0000EBC0019B
:1023F00004EB81014FF001064FF0000503D581F891
:102400003D603C3103E081F87D5201F51F71087099
:10241000CA600B714A7802B10881022B00D14D715C
:1024200094F8BC04012809D084F8BC64206804F046
:1024300071FD284684F8BC54BDE8F0810220FBE71A
:1024400070B50C4601F00F0505EBC50100EB8101ED
:10245000C1F89432C1F88C220023C1F89C3281F873
:102460007D3281F87C52036901F51F71012B00D187
:102470004A612207027C006803D005F047F800207B
:1024800070BD04F031FFFAE770B504460D4601F067
:102490000F006168884201D9012070BD29064FF004
:1024A00000064FF0010207D500EBC00104EB8101EB
:1024B00081F83D203C3107E005EBC50104EB8101CB
:1024C00081F87D6201F51F718A70087094F8BC0470
:1024D000012807D084F8BC24206804F0EBFF28070B
:1024E00002D007E0022070BD217C04F2C4422068C3
:1024F00004F088FF84F8BC64002070BD70B50C4601
:1025000001F00F0505EBC50100EB81014B65CA64C5
:102510000023CB65012381F83D3001F83C5F03695E
:10252000012B00D14A612207027C006803D004F02D
:10253000EDFF002070BD04F0D7FEFAE72DE9FC5F47
:1025400005680446284605F074F900287DD1206806
:1025500005F09BF9002878D0D5F80808C0F30D20C5
:10256000C4F8FC04206805F090F9800704D52068C1
:10257000416901F002014161206805F086F9C10658
:1025800004F2C440009034D52068816921F0100124
:1025900081612F6A07F00F0000EBC00004EB80069A
:1025A000C7F3434006F51F76022802D0062811D053
:1025B0001AE047F6F070074216D0C7F30A12174622
:1025C0002846316905F065F9306938443061306A70
:1025D000384408E008222846009905F05AF9306A84
:1025E000C7F30A11084430622068816941F0100184
:1025F0008161206805F049F900034FF0080B4FF0A6
:10260000000A4FF001097CD50026206805F01CF96E
:10261000074674E0F80770D0F1B2206805F02DF994
:102620008046C00707D005EB4611C1F8089B31462C
:10263000204602F04DFC5FEA087024D505EB4611F8
:10264000C1F808BB2068016C00E025E200EB4610F1
:102650000191D0F8082BFC4B994205D9110403D500
:102660004FF40041C0F8081B204600F005FBF64976
:102670000198884207D92069012804D120680121E6
:10268000009A04F0BFFE5FEAC86004D505EB46116E
:102690001020C1F8080B5FEA88701DD56869000634
:1026A00005D5D5F8040840F48061C5F8041806EB98
:1026B000C60004EB800090F87F1200F51F7001291E
:1026C00005D180F803A0F1B2204600F0EBF905EB4C
:1026D00046110220C1F8080B5FEA886004D505EBBB
:1026E00046102021C0F8081B5FEA884005D505EB9D
:1026F00046104FF40051C0F8081B7F08761C002FCD
:1027000088D1206805F0C1F840036FD5206805F036
:1027100094F80746002667E0F80763D0F1B2206816
:1027200005F099F88046C00723D006F00F0209FA99
:1027300002F0D5F834288243C5F8342805EB46105A
:10274000C0F80899206901280FD106EBC60004EBF8
:102750008000D0E912211144C16436B9606D20B9FE
:1027600020680121009A04F04DFEF1B22046FFF7E7
:10277000B4FD5FEA087003D505EB4611C1F808B94E
:102780005FEAC86004D505EB46111020C1F80809BE
:102790005FEA486004D505EB46104021C0F80819EF
:1027A0005FEA887017D53146284605F015F806EB24
:1027B000C60004EB800090F83F103C30012905D1A1
:1027C00080F803A0F1B2204600F068F905EB46114D
:1027D0000220C1F808095FEA086003D531462046A7
:1027E00002F0DCFB7F08761C002F95D1206805F0F5
:1027F0004CF8002811DAD5F8040820F00101C5F8DA
:10280000041894F8F40401282BD0204600F018FA9C
:102810002068416901F000414161206805F035F808
:1028200000050BD5D5F80808C00702D0204600F0F7
:102830004BFA2068416901F400614161206805F0AC
:1028400024F8C00466D5D5F8040820F00100C5F8C6
:1028500004081021206804F0BFFF00214FF67F32EA
:102860001FE084F8F4A400212046FFF70BFDCFE71A
:1028700005EB4110C0F80829D0F8003923F4001303
:10288000C0F80039C0F8082BD0F8003B23F400133F
:10289000C0F8003BD0F8003B43F00063C0F8003BB9
:1028A000491C60688842E3D8D5F81C0840F0011143
:1028B000C5F81C18206B002828460DD0D0F88408D5
:1028C00040F00B01C5F88418D5F8440840F00B011E
:1028D0002846C5F844180DE0D0F8140842F22B0140
:1028E0000843C5F81408D5F8100840F00B01284635
:1028F000C5F81018D0F8000820F4FE61C5F80018DB
:10290000217C2068009A04F07DFD2068416901F473
:1029100080514161206804F0B8FF800415D520681B
:1029200004F038FB206804F077FFE06000F09EFAC6
:102930000146227B206805F00BF8204600F06AF97A
:102940002068416901F400514161206804F09DFF55
:10295000000707D5204600F077F92068416901F0AB
:1029600008014161206804F090FF000616D5A869AF
:1029700020F08000A86101260DE000BF06EBC60034
:1029800004EB800090F87F02012803D1F1B22046C9
:10299000FFF7BAFC761C6068B042EFD8206804F0FC
:1029A00074FFC00221D501264F4616E005EB461004
:1029B000D0F8001906EBC60004EB800090F8402028
:1029C000012A09D1002907DA80F83F70F0B240F0FF
:1029D00080012046FFF798FC761C6068B042E5D87D
:1029E0002068416901F480114161206804F04DFFC5
:1029F000800234D501204B4629E000BF05EB401191
:102A0000D1F8001B00EBC00204EB820696F880228E
:102A1000012A1BD1002919DA94F8FC2401F4803131
:102A200002F00102914211D186F87F32A96941F08A
:102A30008002AA616969090608D4D5F8040840F43F
:102A40000070C5F8040805E00A30544F401C616866
:102A50008142D3D82068416901F4001141612068A6
:102A600004F013FF400007D52046FFF732FC206832
:102A7000416901F080414161206804F006FF400790
:102A80000AD520684568680702D52046FFF738FC5C
:102A90002068416829434160BDE8FC9FD0F80805E3
:102AA00003F036BFD0F8080503F046BF2DE9F0412A
:102AB0008AB0040005D094F8BD042668002520B132
:102AC00008E001200AB0BDE8F08184F8BC5420463B
:102AD00000F05EF8032084F8BD04F06BC00500D45C
:102AE0002561206804F0FAFB04F1100128228846D1
:102AF0006846FDF7CFFC94E80F0004F059FA02266F
:102B0000C8BB0021206804F0E3FE002001270EE08E
:102B100000EBC00104EB810181F83D7001F83C0F2E
:102B200008810D71CD600D61401CC0B28D6161687E
:102B30008142EDD8002011E000EBC00104EB8101DF
:102B400081F87D5281F87C0281F88052C1F8885268
:102B5000C1F88C52401CC0B2C1F8945261688142E5
:102B6000EAD8282241466846FDF794FC94E80F0015
:102B700004F0FAFA10B184F8BD64A2E784F8385082
:102B800084F8BD74206804F0E1FA00209AE70000A0
:102B900010B586B0044614216846FDF7ADFC2068E8
:102BA000B0F1A04F2FD119480021026842F0010274
:102BB0000260006800F0010005904FF4C0500090E2
:102BC0000220CDE90101032003900A200490694608
:102BD0000F48FFF777F80D48001D016841F08001AC
:102BE00001600A481430016841F4804101600068C6
:102BF000002200F48040059005214320FFF710FBE0
:102C00004320FFF7FFFA06B010BD00003038024045
:102C10000000024070B50446C068012570B102286A
:102C200001D0FEF7CFF92946D4F8080503F0F2FEEB
:102C3000D4F80805BDE8704003F0A7BE0025F2E710
:102C4000D0F8080503F0CFBED0F8080503F0D5BED4
:102C500010B5044690F8BC0401280BD0012084F87C
:102C6000BC0484F83810206804F060FE002084F86A
:102C7000BC0410BD022010BDD0F8082500F2C441EC
:102C8000104603F0D3BE10B50446006894F8BC1497
:102C9000012906D0012184F8BC14A16A012902D0BF
:102CA00008E0022010BDA169012903D0816B41F425
:102CB00080318163206804F06AFD206804F038FAEE
:102CC000002084F8BC0410BD10B50446D0F80805F7
:102CD00003F0EEFE2068D0F8001E41F00101C0F8BC
:102CE000001E206A002804D00248016841F0060155
:102CF000016010BD10ED00E02DE9F0470E46050023
:102D000065D0DFF81481D8F80000F7B200F00700B2
:102D1000B04207D288F80070D8F8000000F0070031
:102D2000B04254D128683D4C810712D5400703D5E5
:102D3000206840F4E05020602878000703D5206820
:102D400040F4604020602068A96820F0F00008434B
:102D500020602878C0072DD03049686808390128DC
:102D600012D0022813D0032811D00968890700293E
:102D70002DDA216821F0030101432160FFF7A4F857
:102D8000814641F2883A0EE009688903EFE7096855
:102D90008901ECE7FFF798F8A0EB0901514502D94A
:102DA0000320BDE8F0872068696800F00C00B0EBF4
:102DB000810FEFD1D8F80010404601F00701B14271
:102DC00007D90770006800F00700B04201D0012069
:102DD000E7E72878400705D52068E96820F4E05047
:102DE000084320602878000706D52068296920F468
:102DF000604040EAC100206000F05EF82168084AA7
:102E0000C1F30311515CC8400649086006480068D8
:102E1000FFF790F90020C4E7003C02400838024068
:102E200088CD000820000020180000200F2202603A
:102E30000C4A136803F003034360136803F0F003C4
:102E40008360136803F4E053C36012684FF4E053E7
:102E500003EAD20202610448006800F0070008603B
:102E60007047000008380240003C024001480068FA
:102E700070470000200000200448054900680968E8
:102E8000044AC1F38221515CC840704720000020F1
:102E90000838024098CD00080448054900680968D0
:102EA000044AC1F34231515CC84070472000002001
:102EB0000838024098CD0008154810B5006810F099
:102EC0000C02144813D01449042A0FD0082A0ED13A
:102ED0000F4C241F2268236802F03F025B0207D5D3
:102EE0002068C0F38810A0FB010106E0084610BD71
:102EF0002168C1F38811A1FB00010023FDF734FA1A
:102F00002168C1F30141491C4900B0FBF1F010BD3B
:102F1000083802400024F400001BB7002DE9F84FE8
:102F200004006ED02078DFF84C93C007A9F10405A7
:102F30004AD009F104000168C1F38101012908D0D8
:102F40000068C0F3810002280AD1D9F800004002CD
:102F500006D52868800337D560680028E1D033E0C3
:102F60006068B0F5803F10D0B0F5A02F286810D071
:102F700020F480302860286820F480202860606871
:102F8000A8B1FEF7A1FF06460DE0286840F48030A6
:102F9000F4E740F480202860F7E700BFFEF794FFD5
:102FA000801B642873D828688003F7D50CE0FEF7EF
:102FB0008BFF064605E000BFFEF786FF801B6428F6
:102FC000F0D828688003F7D42078DFF8AC82800737
:102FD0004FF0000A3ED5A748001D016811F00C0F04
:102FE00008D00068C0F3810002280BD1D9F8000096
:102FF000400207D42868800716D5E068012800D170
:1030000012E033E1E068B8B10120C8F80000FEF733
:103010005BFF064605E000BFFEF756FF801B022857
:10302000C0D828688007F7D52868216920F0F80003
:1030300040EAC10028600DE0C8F800A0FEF744FF98
:10304000064604E0FEF740FF801B02281FD82868D0
:103050008007F7D42078000722D5864F874861691A
:10306000703771B101210160FEF72EFF064604E0C2
:10307000FEF72AFF801B022809D838688007F7D599
:103080000EE0C0F800A0FEF71FFF064605E082E054
:10309000FEF71AFF801B02287DD838688007F7D416
:1030A0002078400768D5DFF8CCB100270BF13C0B46
:1030B000DBF80000C0000BD4DBF8001041F08051B9
:1030C000CBF80010DBF80000012700F080500090E2
:1030D0006B4E3068C00510D4306840F480703060AA
:1030E000FEF7F2FE009005E0FEF7EEFE0099401AB2
:1030F000022850D83068C005F6D55E4EA0686C3600
:1031000001280FD00528306810D020F00100306071
:10311000306820F004003060A068B8B1FEF7D4FE3B
:1031200000900FE0306840F00100F4E740F0040048
:103130003060F7E7FEF7C8FE0099411A41F2883087
:10314000814266D830688007F4D50EE0FEF7BCFEF9
:10315000009007E0FEF7B8FE0099411A41F288306E
:10316000814256D830688007F4D42FB1DBF80010C4
:1031700021F08051CBF80010A069C8B33D49091D6A
:103180000968C1F3810102294AD00228504607D0BC
:10319000C8F8600000E03CE0FEF796FE04463BE025
:1031A0004746C8F86000FEF78FFE064605E000BF00
:1031B000FEF78AFE801B02282BD828688001F7D4EE
:1031C000D4E907010843A16A2E4A490802EB0141EC
:1031D000626A41EA8211084394F82C1040EA0161C6
:1031E000C9F8001001203866FEF76EFE044606E0BE
:1031F0003EE000BFFEF768FE001B022809D82868E1
:103200008001F7D534E000BFFEF75EFE001B022808
:1032100002D90320BDE8F88F28688001F4D427E0A4
:103220000128F7D0D9F80000E26900F4800191424A
:103230001CD1226A00F03F01914217D147F6C071BC
:10324000626A0140B1EB821F10D1A26A4FF0FF33D6
:1032500000F4403103EB5202B1EB024F06D194F877
:103260002C1000F07060B0EB016F01D00120D1E7AD
:103270000020CFE70438024000004742800E47425A
:10328000007000400000FFFF7047000038B5016883
:1032900004464A688868C043430606D5C30704D17C
:1032A000D3435B0601D4216C05E0830708D4D343E4
:1032B0001B0605D4616C01B02046BDE830400847CC
:1032C000830603D5430601D5C30551D4D3439B06DA
:1032D0004ED443060AD494F85130032B49D0636D81
:1032E00043F004036365CB688B680093830609D4BD
:1032F000636D43F0010363658B6800930B6823F0F3
:1033000040030B60C00506D4606D40F008006065A6
:10331000206880680090606D002829D0206841688E
:1033200021F0E0014160012084F85100900701D4B0
:10333000D00722D02068416821F003014160114D7F
:10334000E06C40B10565E06CFEF7E4FA18B1606D21
:1033500040F040006065A06C002809D00565A06CB5
:10336000FEF7D8FA002803D0606D40F04000606599
:1033700038BDC8688868009038BD2046FFF784FFD4
:1033800038BD0000F953000870B5040009D0606A28
:10339000002540B125616561A56294F8510040B1F6
:1033A0000CE0012070BD6068B0F5827FF4D0E5616B
:1033B000F2E784F85050204600F044F8022084F8E8
:1033C00051002068016821F040010160A088218936
:1033D00000F4827001F404410843A18901F4006102
:1033E0000843217C01F002010843217D01F0010125
:1033F0000843218B01F400710843217F01F038015B
:10340000084394F8201001F080010843218D01F455
:103410000051084321680860A069042101EA1040B6
:1034200094F8241001F010010843216848602068D6
:10343000C16921F40061C1616565012084F8510012
:10344000002070BD2DE9F04387B006461421684680
:10345000FDF752F838493068884269D1374800256D
:10346000016841F480510160006800F480500590CB
:1034700032481438016841F002010160016801F02E
:1034800002010591016841F0010101600068022418
:1034900000F001000590182001274FF003084FF0BD
:1034A00005098DE8910369462548FEF70BFC80204D
:1034B0008DE8910369462348FEF704FC234C22481B
:1034C0004FF0C067E4E8020740204FF48068A4E8AA
:1034D0002101C00244F81459A561C4E907501B48F2
:1034E0006562FEF7F9FA08B1FDF76CFDB464A663F6
:1034F000164C1548603418382060C4E90175C4E9D9
:10350000035865614FF44030A561C4E90750204677
:103510006562FEF7E1FA08B1FDF754FDF46400229C
:1035200005212320A663FEF77BFE2320FEF76AFE1B
:1035300007B0BDE8F083000000300140443802408D
:10354000000402400000024058640240D4060020FB
:103550002DE9F84F044690F8500000270A9E1D46BA
:1035600092468B464FF0010901280ED0012084F8C5
:103570005000FEF7A9FC804694F8510061680128CC
:103580000CD0B1F5827F07D102E00220BDE8F88FB0
:10359000A16809B9042801D00227C2E0BBF1000FDD
:1035A00027D0BAF1000F24D01DB394F8510004289D
:1035B00002D0052084F8510000206065C4F838A0CE
:1035C000E587A587C4F830B0E586A58620646064E9
:1035D00020680168490603D4016841F04001016098
:1035E000E068B0F5006F606805D0E8B3012D46D003
:1035F0007FE0012795E008B1012D39D1206B2168CA
:103600000088C860206B801C2063E08E401EE0862E
:103610002EE02068816889070FD5E18E69B1B9F184
:10362000010F0AD1216B0988C160206B801C2063C7
:10363000E08E401EE0864FF0000920688168C907CF
:103640000CD0E18F51B1C068A16B0880A06B801CC9
:10365000A063E08F401EE0874FF00109FEF734FCC5
:10366000A0EB0800B04200E009E001D3701C50D18B
:10367000E08E0028CDD1E08F0028CAD13FE0206B3A
:10368000216800780873206B401C2063E08E401E88
:10369000E0862EE02068816889070FD5E18E69B148
:1036A000B9F1010F0AD1216B09780173206B401C1D
:1036B0002063E08E401EE0864FF00009206881689C
:1036C000C9070CD0E18F51B1C068A16B0870A06B25
:1036D000401CA063E08F401EE0874FF00109FEF719
:1036E000F3FBA0EB0800B04202D3701C01D010E045
:1036F0007EB1E08E0028CDD1E08F0028CAD14246AD
:103700003146204601F080FE28B101272020606567
:1037100007E0032705E0A06818B92068C168806841
:103720000090012084F85100002084F850003846B1
:103730002CE77047704710B5040003D094F83D00A3
:1037400010B107E0012010BD002084F83C002046A5
:1037500000F01EF8022084F83D00211D206801F0D1
:103760008BFF012084F8460084F83E0084F83F0077
:1037700084F8400084F8410084F8420084F8430053
:1037800084F8440084F8450084F83D00002010BD12
:1037900008B500680649884208D10648016841F426
:1037A00000310160006800F40030009008BD0000A6
:1037B000004401404438024090F83D10012901D0F6
:1037C00001207047022180F83D100168CA6842F06C
:1037D0000102CA6000681149884214D0B0F1804FDC
:1037E00011D00F4988420ED00E4988420BD00E49A5
:1037F000884208D00D49884205D00D49884202D040
:103800000C49884204D1816801F00701062903D0E0
:10381000016841F001010160002070470000014093
:103820000004004000080040000C0040000401407B
:103830000040014000180040704770B50446006821
:1038400001694FF00005C943890715D4C168C94310
:10385000890711D4E91E0161012020772068806961
:103860008007204602D0FFF7E7FF04E000F0C2F82F
:10387000204600F054F9257720680169C9434907BB
:1038800017D4C168C943490713D46FF0040101611B
:10389000022020772068806910F4407F204602D003
:1038A000FFF7CAFF04E000F0A5F8204600F037F962
:1038B000257720680169C943090716D4C168C9433F
:1038C000090712D46FF008010161042020772068F5
:1038D000C0698007204602D0FFF7AEFF04E000F089
:1038E00089F8204600F01BF9257720680169C94353
:1038F000C90617D4C168C943C90613D46FF01001B3
:103900000161082020772068C06910F4407F2046BC
:1039100002D0FFF791FF04E000F06CF8204600F0C1
:10392000FEF8257720680169C943C90708D1C16835
:10393000C943C90704D1891E0161204600F054F92A
:1039400020680169C943090609D4C168C943090649
:1039500005D46FF0800101612046FFF7EAFE206880
:103960000169C943490609D4C168C943490605D458
:103970006FF040010161204600F040F920680169C4
:10398000C94389060BD4C168C943890607D46FF0BF
:10399000200101612046BDE87040FFF7CBBE70BD3D
:1039A00010B586B0044614216846FCF7A5FD0E4903
:1039B0002068884215D10D48016841F0200101605E
:1039C0000068012100F020000590402000900220B6
:1039D000CDE9010103900320049069460448FEF7F5
:1039E00071F906B010BD00000044014030380240BB
:1039F00000140240704770B5044690F83C00002661
:103A00000D4601280FD0012084F83C006AB1042A39
:103A10001DD0082A2FD00C2A3FD00126002084F880
:103A20003C00304670BD022070BD206801F096FE5B
:103A30002068816941F0080181612068816921F075
:103A400004018161206881692A69114311E02068BD
:103A500001F0B4FE2068816941F400618161206851
:103A6000816921F480618161206881692A6941EA64
:103A700002218161D2E7206801F0D6FE2068C16989
:103A800041F00801C1612068C16921F00401C161F0
:103A90002068C1692A69114311E0206801F0F8FE2D
:103AA0002068C16941F40061C1612068C16921F4E5
:103AB0008061C1612068C1692A6941EA0221C1614E
:103AC000ACE710B5040003D094F83D0010B107E056
:103AD000012010BD002084F83C00204600F01EF8B4
:103AE000022084F83D00211D206801F0C5FD012061
:103AF00084F8460084F83E0084F83F0084F84000D3
:103B000084F8410084F8420084F8430084F84400BB
:103B100084F8450084F83D00002010BD70477047D0
:103B200010B50446022249B104290ED0082913D049
:103B300094F84100012816D0012010BD94F83E00F1
:103B40000128F9D184F83E200FE094F83F000128C5
:103B5000F2D184F83F2008E094F840000128EBD12E
:103B600084F8402001E084F841200122206801F01F
:103B7000E7FD16492068164A884201D0904203D1D9
:103B8000436C43F4004343642068884213D0B0F18F
:103B9000804F10D00F4988420DD00F4988420AD07B
:103BA0000E49884207D0904205D00D49884202D084
:103BB0000C49884204D1816801F00701062903D02D
:103BC000016841F001010160002010BD00000140CA
:103BD000000401400004004000080040000C0040C8
:103BE000004001400018004000680349884201D1AC
:103BF000FEF77EBA7047000000040040704770472F
:103C000010B504460068406994F83D10C0F3C01038
:103C1000212911D180B12068143050E8001F21F013
:103C2000800140E80012002AF5D1606B08B1FDF771
:103C300028FE204601F0F6FE2068406994F83E1008
:103C4000C0F38010222911D180B12068143050E8CF
:103C5000001F21F0400140E80012002AF5D1A06BBE
:103C600008B1FDF70EFE204601F0B5FE002010BDA4
:103C700070470000F8B5016804460868CA684B69D7
:103C800010F00F0F4FF0000559D003F0010602F4B9
:103C90009077374365D0C10705D0D10503D5216C96
:103CA00041F001012164410705D5D90703D0216CFA
:103CB00041F002012164810705D5D90703D0216CA9
:103CC00041F004012164010707D502F020013143CE
:103CD00003D0216C41F008012164216C00293AD005
:103CE000800604D5900602D5204601F0A9FE206882
:103CF0004069216CC0F38010090700D460B32046EE
:103D000001F069FE20684069400621D52068143022
:103D100050E8001F21F0400140E80012002AF5D1D0
:103D2000A06BA8B16C490165A06BFDF7F3FD0028FD
:103D300011D0A06B016D01B0BDE8F04008478306CB
:103D40000FD593060DD52046BDE8F84001F078BEAA
:103D50002046FFF78DFFF8BD2046FFF789FF256459
:103D6000F8BD266B2023012E79D1C60677D5D6065D
:103D700075D50868486800904869400640D5A16B31
:103D8000086840680004000CEAD0A28D8242E7D99E
:103D9000E085C869B0F5807F2DD020680C3050E8F0
:103DA000001F21F4807140E80012002AF5D120683C
:103DB000143050E8001F21F0010140E80012002AF1
:103DC000F5D12068143050E8001F21F0400140E890
:103DD0000012002AF5D184F83E30256320680C30AB
:103DE00050E8001F21F0100140E80012002AF5D130
:103DF000A06BFDF746FDA08DE18D401A81B229E050
:103E0000A08DE18D401A81B2E08D0028A8D0002954
:103E1000A6D020680C3050E8002F22F4907240E8C1
:103E20000026002EF5D12068143050E8002F22F033
:103E3000010240E80026002EF5D184F83E302563CB
:103E400020680C3050E8002F22F0100240E80023D8
:103E5000002BF5D12046FFF7D2FEF8BDFFE705069F
:103E60002BD5150629D594F83D002128F5D1A06859
:103E7000B0F5805F01D12069B0B1206A411C216298
:103E8000216800784860E08C401E0004000CE0844B
:103E9000E3D12068C16821F08001C1602068C16859
:103EA00041F04001C160D8E7206A0088C0F30800F3
:103EB0004860206A801C2062E5E74006CDD55006A8
:103EC000CBD5CA68204622F04002CA6084F83D3053
:103ED00000F0EDF9C1E70000E158000870B50400FA
:103EE00004D094F83D00002510B106E0012070BD1B
:103EF00084F83C50204600F023F8242084F83D004C
:103F00002068C16821F40051C160204601F0F8FD2D
:103F10002068016921F4904101612068416921F024
:103F20002A0141612068C16841F40051C1602564E3
:103F3000202084F83D0084F83E00002070BD000081
:103F40002DE9F04F87B0044614216846FCF7D4FAF7
:103F5000A648DFF894821438D4F800C0A34B02219D
:103F600003224027002506154FF00709C44574D1E8
:103F7000D3F800C0AA464CF0100CC3F800C01B6870
:103F800003F010030593036843F002030360036822
:103F900003F002030593036843F001030360006824
:103FA000884600F0010005908020CDE90008CDE9A9
:103FB000025293466946CDF810908D48FDF782FE77
:103FC0007010CDE90008CDE9025B6946CDF810908C
:103FD0008848FDF777FEDFF82492874948464FF07E
:103FE0000068C9F80010C0E90185C0E90356C9F8A6
:103FF0001450C9F81850C9F81C50C9F82050C9F815
:104000002450FDF769FD08B1FCF7DCFF7B4DC4F8D7
:10401000389079486035C9F838403030AF60C5E92C
:104020000008C5E903A6C5F814A0C5F818A0C5F88E
:104030001CA0C5F820A02846C5F824A0FDF74CFD1B
:1040400008B1FCF7BFFF6563002205212520AC63A2
:10405000FEF7E6F8252062E0FFE7DFF8A4814FF4E1
:10406000807BC44560D1614BAA461B1FD3F800C0BA
:104070004CF4802CC3F800C01B6803F48023059324
:10408000036843F004030360006800F00400059037
:104090004FF440608DE82300CDE903296946594873
:1040A000FDF710FEDFF85491574909F1C009484661
:1040B0004FF00068C9F80010C0E90185C0E9035657
:1040C000C9F81450C0E9065B4FF4403BC9E908B594
:1040D000FDF702FD08B1FCF775FF4C4DC4F83890B0
:1040E0004948C9F838403030AF60C5E90008C5E933
:1040F00003A6C5F814A0C5F818A0C5E907AB284663
:10410000C5F824A0FDF7E8FC08B1FCF75BFF656388
:10411000002205212720AC63FEF782F82720FEF756
:1041200071F807B0BDE8F08FDFF8E480C445F8D13E
:10413000D3F800C04CF0200CC3F800C01B6803F09B
:1041400020030593036843F040030360006800F018
:10415000400005904FF484408DE823000820CDE90D
:10416000032069462B48FDF7ADFDDFF8A0902249FA
:1041700009F16009603948464FF0206AC9F800101B
:10418000C0E901A5C0E90356C9F81450C0E9065BAF
:10419000C9F82050B046C9F82450FDF79DFC08B17D
:1041A000FCF710FF194EC4F83890C036C9F83840F3
:1041B000C6E90275C6E90485B5610F48F561356247
:1041C00018307562C6E9000A3046FDF785FC08B173
:1041D000FCF7F8FE6663002205214720B463FEF772
:1041E0001FF847209BE700000010014044380240C0
:1041F000000402400000024088640240A808002039
:10420000004800400008024028600240C809002021
:10421000001401400018024090F83E30202B0ED1CF
:1042200059B152B190F83C30012B08D0012380F8ED
:104230003C300023036301F0E9BC012070470220F9
:104240007047000010B500681349884222D1134816
:10425000FFF7D6FC1148806B006840681049C0F138
:10426000800088700F480B7802789A4212D1427809
:1042700049788A420ED10C4950F82F2F0A604268C3
:104280004A6080688860BDE8104080220549034884
:10429000FFF7C2BF10BD000000100140DC07002086
:1042A000C8000020040300203848002070477047F1
:1042B000FEE700002DE9F04100262DED048B44F6C9
:1042C000206743E0254AA2F11005291D101DFCF7C7
:1042D0004BFA686908F028FC9FED218B53EC182BF2
:1042E00008F02CF905F1780441EC190B206808F06E
:1042F0001BFC53EC192B08F02DFB07F043FE20604C
:10430000A86908F011FC53EC182B08F017F941ECE0
:10431000190B606808F008FC53EC192B08F01AFB25
:1043200007F030FE6060E86908F0FEFB53EC182BE4
:1043300008F004F941EC180BA06808F0F5FB53EC09
:10434000182B08F007FB07F01DFEA0603046761C16
:10435000B842B7DBBDEC048BBDE8F081B45000205F
:104360002D431CEBE2360A3F08B5072000E064202D
:1043700006F086FDFCF7E0F90028F8D1714A0092BA
:10438000A2F11009101D09F104018346FCF7ECF9B4
:10439000FFF790FF4A46A2F14001A1F10C0006F0A0
:1043A000B3FBDFED690A9FED690A694A002109F153
:1043B000300000F0D9FEA9F13402A2F10C0101F1A4
:1043C0001800FCF70DF9A9F14007A7F1180597EDC2
:1043D000000AA5F10C0685ED000AA5F1180886ED86
:1043E000000A88ED000A97ED010A002085ED010A18
:1043F00086ED010A88ED010A97ED020A85ED020AB1
:1044000086ED020A88ED020A06F070FD07F096FCC0
:10441000504C102160625048C161FEF7B5FF08B1F1
:10442000FCF7D0FD4B4908223431A1F1080000F01F
:1044300065FF0120E0704FF0FF3A5146012007F080
:1044400099F90128F9D12078400708D5207820F083
:10445000040020703F4859463530FCF73DF960783C
:1044600040070BD5607820F004006070354A09F1F0
:1044700004011032A2F12A00FCF7E4F8A07840070A
:104480000CD5A07820F00400A070324800992A30A2
:10449000FCF744FA99ED040A06F00CFC294A103A9C
:1044A000A2F14001A1F10C0006F02EFB96ED000AEE
:1044B000DFED2A2A88ED000AD5ED000A9FED281AC3
:1044C000C6ED000A60EEA21ADFED260A1D4840EE96
:1044D000011A97ED000A5C3840EE201AC5ED001A6B
:1044E00096ED013A88ED013A95ED010A86ED010A53
:1044F00020EE222A97ED010A03EE012A00EE202A7F
:1045000085ED012A96ED023A88ED023A95ED020A10
:1045100086ED020A60EE222A97ED020A43EE012A96
:1045200040EE202AC5ED022A90EC030A243000F068
:1045300013FB044B203B1A1F111FA1F1100006F0C2
:1045400069FA7AE7B45000200080894500A08C45C4
:10455000E0CD0008800100207C0600205AF8F63FDC
:104560005D896EBFD5A9183B2DE9F04786B01421AF
:104570006846FBF7C1FF00254FF4304001240226B6
:1045800003958DE85100DFF87CA069465046FDF7A1
:1045900099FBCDE900641C4FCDE9026569463846B8
:1045A000FDF790FB4FF48058012241465046FDF73D
:1045B00086FC4FF40059012249465046FDF77FFC26
:1045C000A6030096CDE9015469465046FDF77AFBF3
:1045D000CDE90045694638460294FDF773FB012298
:1045E00031465046FDF76BFC002241465046FDF730
:1045F00066FC012249465046FDF761FC06B0BDE865
:10460000F08700000004024000140240F0B50023CF
:104610000A24302537261F4611E000BFB4EB107F77
:1046200002D905EB107C01E006EB107C01F813C009
:1046300001EB430C00015B1C8CF80170DBB2934270
:10464000ECD3F0BD0F4810B50D4901600321416066
:1046500000214FF410228160C0E903124FF40012D0
:104660004261017641768176C17601774177FCF728
:1046700024FF002803D0BDE81040FCF7A3BC10BD08
:1046800000640040D80500200F4810B50D490160B6
:104690000321416000214FF410228160C0E9031220
:1046A0004FF400124261017641768176C17601773E
:1046B0004177FCF702FF002803D0BDE81040FCF76B
:1046C00081BC10BD0068004000060020294808B5E4
:1046D000016841F480010160016801F480010091EA
:1046E000016841F4001101600068002200F400102C
:1046F000009005210C20FDF793FD0C20FDF782FDB5
:10470000002205210E20FDF78BFD0E20FDF77AFD1E
:10471000002205213920FDF783FD3920FDF772FDC8
:10472000002205213A20FDF77BFD3A20FDF76AFDC6
:10473000002205213B20FDF773FD3B20FDF762FDC4
:10474000002205214420FDF76BFD4420FDF75AFDB2
:10475000002205214520FDF763FD4520FDF752FDB0
:10476000002205214620FDF75BFDBDE808404620FC
:10477000FDF748BD3038024010B59CB01C221649E8
:104780006846FBF787FE0021684606F085FB134C60
:1047900011491C22E0601C3107A8FBF77BFE0021B9
:1047A00007A806F079FB0C4920601C2238310EA8BE
:1047B000FBF770FE00210EA806F06EFB0649A06014
:1047C0001C22543115A8FBF765FE002115A806F040
:1047D00063FB60601CB010BD10CD0008000000201D
:1047E0002DE9F04F87B014216846FBF785FE594844
:1047F0004FF0000B016841F002010160016801F017
:1048000002010591016841F040010160016801F079
:1048100040010591016841F001010160016801F06A
:1048200001010591016841F008010160016801F092
:1048300008010591016841F004010160016801F07F
:1048400004010591016841F080010160016801F0F7
:1048500080010591016841F02001016000683E4F30
:1048600000F020000590012240213846FDF727FB8B
:104870000122DFF8E880960231464046FDF71FFB33
:10488000DFF8DC90012210214846FDF718FBDFF825
:10489000D4A0012241F201015046FDF710FB012492
:1048A0004020CDE900040294694638460394FDF7A0
:1048B00009FA09204FF48815CDE9000569460294EC
:1048C0003846FDF7FFF9CDE90064CDE9024B6946B2
:1048D0004046FDF7F7F91020CDE900040226CDE9A6
:1048E000024669464846FDF7EDF93020CDE900055E
:1048F000694602941C48FDF7E5F92003CDE9000460
:104900000294694650460394FDF7DCF9CDE902466E
:104910000094694650460194FDF7D4F9062100221F
:104920000846FDF77DFC0620FDF76CFC0022052102
:104930000A20FDF775FC0A20FDF764FC0022052122
:104940001720FDF76DFC1720FDF75CFC07B0BDE8F4
:10495000F08F00003038024000180240001C024076
:104960000000024000040240000802400D4810B55B
:104970000B4901600C49416000214FF48042816085
:10498000C0E9031241618161C1610162FDF7A2FAD0
:10499000002803D0BDE81040FCF714BB10BD000098
:1049A000005C004028060020801A0600104810B560
:1049B0000E4901604FF48271416000210222816042
:1049C000C0E9031201224261520282611022C0E951
:1049D0000721416281620A21C162FEF7D5FC0028ED
:1049E00003D0BDE81040FCF7EDBA10BD0030014027
:1049F0007C06002010B588B01C216846FBF77CFDC2
:104A0000144813490024C0E900144FF6FF71C0E9AF
:104A1000024104618461FEF78EFE08B1FCF7D2FA10
:104A20000C48FFF74EF808B1FCF7CCFA6020CDE94E
:104A3000000402940022694606480494FEF7DBFF56
:104A400008B1FCF7BFFA0348FEF7AAFF08B010BD93
:104A500000440140940700200C4810B50A49016049
:104A60004FF4E1314160002181600C22C160C0E956
:104A700004128161C161FFF731FA002803D0BDE85B
:104A80001040FCF79FBA10BD00100140DC07002069
:104A90000C4810B50A4901600B4941600021816052
:104AA0000C22C160C0E904128161C161FFF716FAEE
:104AB000002803D0BDE81040FCF784BA10BD000008
:104AC0000048004020080020A08601000C4810B5D6
:104AD0000A4901604FF4E1314160002181600C22FC
:104AE000C160C0E904128161C161FFF7F7F90028D4
:104AF00003D0BDE81040FCF765BA10BD00140140BA
:104B00006408002010B500220F49104801F0E3FDB1
:104B100008B1FCF757FA0E490C4801F0F1FF08B153
:104B2000FCF750FA0B49094801F084FB08B1FCF787
:104B300049FA064802F068F8002803D0BDE81040A2
:104B4000FCF740BA10BD00001002002028510020E0
:104B5000CC02002060020020F5EEC01AB0EE413A0F
:104B6000F0EE603AB0EE404AF1EE10FA00B50246BF
:104B700009D1B5EEC02AF1EE10FA04D1F5EEC02A43
:104B8000F1EE10FA78D021EEA10A02EE020A02EE4E
:104B9000A20A06F0CDF821EE805A62EE004A92EDAC
:104BA000011AD2ED030A22EE800AD2ED002A21EE8C
:104BB000202AD2ED021A22EE811A5C4802EEE12A86
:104BC00001EEA01AF6EE001A52EEA21A40EEA01A5A
:104BD00060EE020A64EEA12A45EE610A40EE412A27
:104BE00025EE010A90ED041A04EEC20AB5EEC01AD1
:104BF000F1EE10FA2CDD90ED041AD0ED051A21EE3D
:104C0000222A9FED4B1A42EE011AC0ED051AD0ED93
:104C1000041A21EEA02AD0ED061A42EE011AC0EDC8
:104C2000061AD0ED041A21EE802AD0ED071A42EEC2
:104C3000011AC0ED071A90ED051A34EE014A90ED05
:104C4000061A73EE813A90ED071A33EE013A07E047
:104C50009FED381A80ED051A80ED061A80ED071ACF
:104C600090ED031A01EE224A90ED031A41EE203A2C
:104C7000D0ED030A00EE803A9FED2F0AD2ED021A22
:104C800024EE002A63EE802A23EE001A92EC020A38
:104C900092ED033A60EEC23A41EEE23A43EE413A17
:104CA00073EE804A60EE023AC2ED004A41EE813A6C
:104CB00043EE623A33EEA04A60EE223A20EE010A59
:104CC00082ED014A40EEC13A00EEA20A43EE023AFA
:104CD00001EEC20A73EEA13A70EE030A24EEA40AB2
:104CE000C2ED023AC2ED030A04EE040A03EEA30A7F
:104CF00000EEA00A06F01CF8D2ED000A60EE800A71
:104D0000C2ED000AD2ED010A60EE800AC2ED010A8E
:104D1000D2ED020A60EE800AC2ED020AD2ED030A69
:104D200020EE800A82ED030A00BD00008001002011
:104D30006F12833A000000006F12033AFEE7FEE7AD
:104D40001FB50FA10522D1E90001CDE9020102A999
:104D5000302000F073F805226946102000F014F8A6
:104D6000002069460A5CA52A03D1401CC0B2052870
:104D7000F8D3052802D0012004B010BD0020FBE7C5
:104D8000A5A5A5A5A50000002DE9F047DFF84090F6
:104D900015460F4604464FF4005800224146484647
:104DA000FDF78DF8204600F05BFB0646002405E089
:104DB000002000F055FB3855641CE4B2AC42F7D338
:104DC000012241464846FDF77AF83046BDE8F087B3
:104DD0000004024070B50B4E04464FF4005500220B
:104DE00029463046FDF76BF8204600F039FB0020DD
:104DF00000F036FB0446012229463046FDF75FF8F5
:104E0000204670BD0004024070B505460720FFF73C
:104E1000E1FF04460146272000F036F860060AD577
:104E2000202229466120FFF7AFFFFF21E22000F09A
:104E30002BF8002070BD012070BD00002DE9F04767
:104E4000DFF8409016460D4604464FF40058002205
:104E500041464846FDF733F8204600F001FB07467F
:104E6000002405E015F8010B00F0FAFA641CE4B226
:104E7000B442F7D3012241464846FDF720F83846B0
:104E8000BDE8F087000402402DE9F0410C4E0F46CA
:104E900004464FF40055002229463046FDF70FF82E
:104EA000204600F0DDFA0446384600F0D9FA012227
:104EB00029463046FDF703F82046BDE8F0810000A2
:104EC000000402400148FDF739BB000024680020BF
:104ED0002DE9F04103680D4604461E6C03EB4511B5
:104EE000D1F8080BD4F810E04FF400474FF0200C35
:104EF00004F2C442BEF1010F09D0DFF898E0764514
:104F000039D1020432D500BFC1F8087B3FE0224B03
:104F10005FEA007E04D59E4239D90004F4D436E01D
:104F20005FEA806E02D5C1F808CB30E010F0280FA0
:104F30002DD19E4201D90004E6D405EBC50004EB57
:104F40008000D1F8101BD0F89832C1F31201591A21
:104F5000C0F89C1200F51F70ADB983691BB10269DE
:104F6000114401610FE0012120680AE080060AD5A2
:104F7000C1F808CB07E035B9D4F8940218B900217C
:104F8000184602F03FFAE9B22046FDF7AFF90020DB
:104F9000BDE8F0810A31544F0A30544F2DE9F84FE3
:104FA0000E4601EBC60100EB810481460568616D88
:104FB000E06D3C34884202D90120BDE8F88F081A20
:104FC000E168814200D20846C01C870805EB4618FC
:104FD0001BE000BFA0EB010AE068504500D282460A
:104FE0000AF10300870899F8100000901FFA8AF36D
:104FF000F2B22846216902F01FFD216901EB0A0087
:105000002061216A01EB0A002062D8F8180980B2F9
:10501000B84205D3216AA069814201D20028D9D1C2
:10502000216AA069884208D806F00F010120884053
:10503000D5F834188143C5F834180020BDE70000C6
:10504000A0B1D0ED101AC0ED111A90ED0F1A80ED3D
:10505000101AC0ED060A80ED070A30EEC00A80ED96
:105060000F0A017829B101293BD078E09FED3D0A74
:105070007047D0ED010A60EE801AC0ED091AD0ED3C
:105080000A0A90ED022A42EE000A30EE410AC0ED13
:105090000A0A90ED0D2A80ED0E2A90ED0C2A80ED83
:1050A0000D2A80ED0C0A90ED031A21EE001A80ED16
:1050B0000B1A90ED050AF4EEC00AF1EE10FA09DCC5
:1050C000B1EE400AF4EEC00AF1EE10FA02D390ED10
:1050D0000A0A01E080ED0A0A31EE800A30EE010A88
:1050E0002BE070EE410A90ED012A20EE822A80ED3D
:1050F000092AD0ED020A60EE800AC0ED0A0AD0ED5E
:105100000D2A72EE200AC0ED0E2AD0ED0C2AC0ED59
:105110000D2AF0EE002A01EE620A30EE210A80ED3F
:105120000C0A90ED031A21EE000A80ED0B0A30EE16
:10513000800AD0ED080A30EE200A80ED080AD0ED92
:10514000040AB4EEE00AF1EE10FA06DCF1EE600AB1
:10515000B4EEE00AF1EE10FA01D2C0ED080A90EDCB
:10516000080A704700000000002828D0002A26D036
:10517000017092ED001A80ED011A92ED011A80ED96
:10518000021A92ED021A80ED031A80ED040A9FEDD7
:105190000C0AC0ED050A80ED0E0A80ED0D0A80EDC7
:1051A0000C0A80ED080A80ED0B0A80ED0A0A80EDFA
:1051B000090A80ED110A80ED100A80ED0F0A704790
:1051C0000000000070B5164D4FF4805400222146B7
:1051D0002846FCF774FE052212492A20FFF72EFE0E
:1051E00001212120FFF750FE01212220FFF74CFE74
:1051F00028212520FFF748FE20213120FFF744FE1B
:105200000F212620FFF740FE0F212020FFF73CFE54
:1052100021462846BDE870400122FCF750BE000040
:1052200000040240C9CD00082DE9F74F8E462F49F2
:105230000868036823F0010303602D4803681C68B5
:1052400024F001041C600B681C68E407F7D103E03C
:105250001C6824F001041C6003681C68E407F7D193
:10526000244F254DDFF88CC04C3FDFF88CB00C6824
:10527000DFF88490B83D4FF40016A7F1040AABF1B3
:10528000600B644501D93E6009E04C4502D9CAF87B
:10529000006004E05C4501D9EE6000E0AE60D0F84B
:1052A00000804FF00066E04501D93E6009E04B45C3
:1052B00002D9CAF8006004E05B4501D9EE6000E065
:1052C000AE60C4F80CE00468009BE3600B685A60B1
:1052D00003685A6009680A6842F001020A600068BF
:1052E000016841F001010160BDE8FE8F3407002034
:1052F000D406002058640240B86002402DE9F04F07
:105300008346344803685C6844F002045C600368C8
:105310005C6844F001045C600068036843F040038B
:1053200003602D4803681C6824F001041C600368B6
:105330001C68E407F7D1294E294C284D4C3EDFF874
:10534000A0A0274FB83C4FF4001CA6F10409AAF115
:10535000600AAB4202D9C6F800C00BE0BB4202D9DA
:10536000C9F800C006E0534502D9C4F80CC001E0FA
:10537000C4F808C0DFF86CC0C3F808C00368D9607F
:1053800001684A600068016841F010010160164838
:1053900001680B6823F001030B6001680B68DB07F1
:1053A000F7D14FF00063A94201D9336009E0B94257
:1053B00002D9C9F8003004E0514501D9E36000E0AA
:1053C000A360C1F808C00368C3F80CB0006842606D
:1053D000BDE8F08F7C0600203407002058640240AE
:1053E000B86002400C300140D40600200148FDF7AF
:1053F0004DBF00007C06002010B5806B0021C187E6
:10540000C186FDF741FF10BD38B504461248134B65
:105410000068B0FBF3F04FF47A7358430090606873
:10542000B0F5827F0DD10B460092002280212046EC
:1054300000F04CF870B1606D40F020006065032012
:1054400038BD009830B1401E009020688068C0438D
:105450000006F6D5002038BD2000002000366E0181
:105460002DE9F041DFF85C80174F044600254FF42A
:105470000046200601D5012200E00022022140461C
:10548000FCF71DFD6006040E012231463846FCF78C
:1054900016FDFF20FBF785FD01214046FCF70AFDC4
:1054A00008B144F00104002231463846FCF707FDFC
:1054B000FF20FBF776FD6D1CADB2082DD9D3204639
:1054C000BDE8F08100140240000402402DE9F843D9
:1054D0001E46914688460446089DFCF7F5FC401B95
:1054E000351AFCF7F1FC074625480068C0F3CB30BD
:1054F000684338E0701C37D0FCF7E6FCC01BA842BC
:1055000003D215B1009860B32CE02068416821F007
:10551000E00141606068B0F5827F0BD1A068B0F512
:10552000004F02D0B0F5806F04D12068016821F0EF
:1055300040010160A06AB0F5005F09D120680168F0
:1055400021F4005101602068016841F400510160BC
:10555000012084F85100002084F850000320BDE8A9
:10556000F8830025401E00902068816838EA010019
:1055700004D000214945BDD10020F0E70121F9E721
:10558000200000200178407841EA00207047FFF7B2
:10559000B9FA012005F074FCFBE7000010B55020BB
:1055A00080F31188BFF34F8FBFF36F8F06F016FCA7
:1055B00018B104494FF080500860002080F3118832
:1055C00010BD000004ED00E030B593B03021684616
:1055D000FAF792FF14210CA8FAF78EFF1D48002558
:1055E000016841F080510160006800F08050119026
:1055F0001948016841F4804101600068022400F408
:105600008040119001200090000401908001CDE9BC
:10561000064006200890A820CDE9090407200B9039
:105620006846FDF77BFC08B172B6FEE70CA90F20B7
:1056300081E831004FF4A0500F904FF4805010904B
:1056400005210CA8FDF758FB002801D072B6FEE733
:1056500013B030BD4038024000700040024801687D
:1056600041F470010160704788ED00E00148FEF7E9
:10567000E4B80000E80A0020F0B50268254C264D89
:10568000264E274F274B4FF0804CA04209D0604553
:1056900007D0A84205D0B04203D0B84201D098420A
:1056A00004D122F0700E4A6842EA0E02A0421BD0DA
:1056B000604519D0A84217D0B04215D0B84213D0D7
:1056C000984211D0184DA8420ED0184DA8420BD0C8
:1056D000174DA84208D0174DA84205D0164DA84234
:1056E00002D0164DA84203D122F44075CA682A435D
:1056F0004D6922F080022A4302608A68C2620A6809
:105700008262A04201D0984201D10969016301215E
:105710004161F0BD0000014000040040000800406D
:10572000000C0040000401400040014000440140E2
:105730000048014000180040001C004000200040CC
:1057400010B501F01F030121046A99408C430462E3
:10575000016A9A401143016210BD0000F0B5026A6F
:1057600022F001020262036A42688469124E24F048
:1057700073050C682C4323F002058B682B430D4DF9
:10578000A84201D0B04205D123F00807CB683B43C3
:1057900023F00403A84201D0B04205D14D6922F4A0
:1057A000407215438A692A434260846149684163B3
:1057B0000362F0BD0000014000040140F0B5026A40
:1057C00022F010020262026A436884690D6824F4C0
:1057D000E64444EA05248D6822F0200242EA0512DC
:1057E0000F4D104EA84201D0B04206D1CF6822F032
:1057F000800242EA071222F04002A84201D0B042E1
:1058000007D14D6923F4406343EA85038D6943EA78
:10581000850343608461496881630262F0BD0000D2
:105820000000014000040140F0B5026A22F48072D9
:105830000262026A4368C46922F4007224F07305AC
:105840000C68124E2C438D6842EA05220E4DA84288
:1058500001D0B04206D1CF6822F4006242EA0722AA
:1058600022F48062A84201D0B04207D14D6923F4EE
:10587000405343EA05138D6943EA05134360C4614D
:105880004968C1630262F0BD0000014000040140AC
:1058900030B5026A22F480520262046A4268C36927
:1058A0000D6823F4E64343EA05238D6824F400548D
:1058B00044EA0534084DA84202D0084DA84204D15C
:1058C0004D6922F4804242EA85124260C361496810
:1058D0000164046230BD000000000140000401408A
:1058E00010B5806B0021C185C184FEF7C1F910BDE0
:1058F00070B5846B2068406994F83D10C0F3C01007
:105900000025212904D118B1E584204600F08AF849
:105910002068406994F83E10C0F38010222904D119
:1059200018B1E585204600F056F8206C40F01000D4
:1059300020642046FEF79CF970BD10B50146806BCF
:1059400009680968C9052FD40021C18501680C3197
:1059500051E8002F22F4807241E80023002BF5D19A
:105960000168143151E8002F22F0010241E80023C0
:10597000002BF5D10168143151E8002F22F04002CC
:1059800041E80023002BF5D1202180F83E10016B67
:10599000012909D101680C3151E8002F22F01002D1
:1059A00041E80023002BF5D1016B012902D0FEF75D
:1059B00049FC10BD818DFEF722F910BD10B5806B3A
:1059C000016B012902D0FEF771FC10BD818D4908E1
:1059D000FEF715F910BD01680C3151E8002F22F4D3
:1059E000907241E80023002BF5D10168143151E891
:1059F000002F22F0010241E80023002BF5D1016BBA
:105A0000012909D101680C3151E8002F22F0100260
:105A100041E80023002BF5D1202180F83E10002121
:105A20000163704701680C3151E8002F22F0C00279
:105A300041E80023002BF5D1202180F83D1070476C
:105A400008B590F83E10222901D0022008BD8268D6
:105A50004FF480539A4201D1016921B1816A9A427F
:105A60001BD04AB10AE00268816A5268C2F3080298
:105A70000A80816A891C08E0026972B10268526872
:105A800002F07F020A70816A491C8162C18D491E41
:105A90000904090CC18503D019E002685268F1E7D6
:105AA0000168CA6822F02002CA600168CA6822F44C
:105AB0008072CA6001684A6922F001024A612021AD
:105AC00080F83E10016B012903D0FEF7BBFB0020DC
:105AD00008BD0021016301680C3151E8002F22F05C
